{
  "contractName": "Auction4Reputation",
  "abi": [
    {
      "anonymous": false,
      "inputs": [
        {
          "indexed": true,
          "internalType": "address",
          "name": "_bidder",
          "type": "address"
        },
        {
          "indexed": true,
          "internalType": "uint256",
          "name": "_auctionId",
          "type": "uint256"
        },
        {
          "indexed": false,
          "internalType": "uint256",
          "name": "_amount",
          "type": "uint256"
        }
      ],
      "name": "Bid",
      "type": "event"
    },
    {
      "anonymous": false,
      "inputs": [
        {
          "indexed": true,
          "internalType": "uint256",
          "name": "_auctionId",
          "type": "uint256"
        },
        {
          "indexed": true,
          "internalType": "address",
          "name": "_beneficiary",
          "type": "address"
        },
        {
          "indexed": false,
          "internalType": "uint256",
          "name": "_amount",
          "type": "uint256"
        }
      ],
      "name": "Redeem",
      "type": "event"
    },
    {
      "constant": true,
      "inputs": [],
      "name": "auctionPeriod",
      "outputs": [
        {
          "internalType": "uint256",
          "name": "",
          "type": "uint256"
        }
      ],
      "payable": false,
      "stateMutability": "view",
      "type": "function"
    },
    {
      "constant": true,
      "inputs": [],
      "name": "auctionReputationReward",
      "outputs": [
        {
          "internalType": "uint256",
          "name": "",
          "type": "uint256"
        }
      ],
      "payable": false,
      "stateMutability": "view",
      "type": "function"
    },
    {
      "constant": true,
      "inputs": [
        {
          "internalType": "uint256",
          "name": "",
          "type": "uint256"
        }
      ],
      "name": "auctions",
      "outputs": [
        {
          "internalType": "uint256",
          "name": "totalBid",
          "type": "uint256"
        }
      ],
      "payable": false,
      "stateMutability": "view",
      "type": "function"
    },
    {
      "constant": true,
      "inputs": [],
      "name": "auctionsEndTime",
      "outputs": [
        {
          "internalType": "uint256",
          "name": "",
          "type": "uint256"
        }
      ],
      "payable": false,
      "stateMutability": "view",
      "type": "function"
    },
    {
      "constant": true,
      "inputs": [],
      "name": "auctionsStartTime",
      "outputs": [
        {
          "internalType": "uint256",
          "name": "",
          "type": "uint256"
        }
      ],
      "payable": false,
      "stateMutability": "view",
      "type": "function"
    },
    {
      "constant": true,
      "inputs": [],
      "name": "avatar",
      "outputs": [
        {
          "internalType": "contract Avatar",
          "name": "",
          "type": "address"
        }
      ],
      "payable": false,
      "stateMutability": "view",
      "type": "function"
    },
    {
      "constant": true,
      "inputs": [],
      "name": "getAgreementHash",
      "outputs": [
        {
          "internalType": "bytes32",
          "name": "",
          "type": "bytes32"
        }
      ],
      "payable": false,
      "stateMutability": "view",
      "type": "function"
    },
    {
      "constant": true,
      "inputs": [],
      "name": "numberOfAuctions",
      "outputs": [
        {
          "internalType": "uint256",
          "name": "",
          "type": "uint256"
        }
      ],
      "payable": false,
      "stateMutability": "view",
      "type": "function"
    },
    {
      "constant": true,
      "inputs": [],
      "name": "redeemEnableTime",
      "outputs": [
        {
          "internalType": "uint256",
          "name": "",
          "type": "uint256"
        }
      ],
      "payable": false,
      "stateMutability": "view",
      "type": "function"
    },
    {
      "constant": true,
      "inputs": [],
      "name": "reputationRewardLeft",
      "outputs": [
        {
          "internalType": "uint256",
          "name": "",
          "type": "uint256"
        }
      ],
      "payable": false,
      "stateMutability": "view",
      "type": "function"
    },
    {
      "constant": true,
      "inputs": [],
      "name": "token",
      "outputs": [
        {
          "internalType": "contract IERC20",
          "name": "",
          "type": "address"
        }
      ],
      "payable": false,
      "stateMutability": "view",
      "type": "function"
    },
    {
      "constant": true,
      "inputs": [],
      "name": "wallet",
      "outputs": [
        {
          "internalType": "address",
          "name": "",
          "type": "address"
        }
      ],
      "payable": false,
      "stateMutability": "view",
      "type": "function"
    },
    {
      "constant": false,
      "inputs": [
        {
          "internalType": "contract Avatar",
          "name": "_avatar",
          "type": "address"
        },
        {
          "internalType": "uint256",
          "name": "_auctionReputationReward",
          "type": "uint256"
        },
        {
          "internalType": "uint256",
          "name": "_auctionsStartTime",
          "type": "uint256"
        },
        {
          "internalType": "uint256",
          "name": "_auctionPeriod",
          "type": "uint256"
        },
        {
          "internalType": "uint256",
          "name": "_numberOfAuctions",
          "type": "uint256"
        },
        {
          "internalType": "uint256",
          "name": "_redeemEnableTime",
          "type": "uint256"
        },
        {
          "internalType": "contract IERC20",
          "name": "_token",
          "type": "address"
        },
        {
          "internalType": "address",
          "name": "_wallet",
          "type": "address"
        },
        {
          "internalType": "bytes32",
          "name": "_agreementHash",
          "type": "bytes32"
        }
      ],
      "name": "initialize",
      "outputs": [],
      "payable": false,
      "stateMutability": "nonpayable",
      "type": "function"
    },
    {
      "constant": false,
      "inputs": [
        {
          "internalType": "address",
          "name": "_beneficiary",
          "type": "address"
        },
        {
          "internalType": "uint256",
          "name": "_auctionId",
          "type": "uint256"
        }
      ],
      "name": "redeem",
      "outputs": [
        {
          "internalType": "uint256",
          "name": "reputation",
          "type": "uint256"
        }
      ],
      "payable": false,
      "stateMutability": "nonpayable",
      "type": "function"
    },
    {
      "constant": false,
      "inputs": [
        {
          "internalType": "uint256",
          "name": "_amount",
          "type": "uint256"
        },
        {
          "internalType": "uint256",
          "name": "_auctionId",
          "type": "uint256"
        },
        {
          "internalType": "bytes32",
          "name": "_agreementHash",
          "type": "bytes32"
        }
      ],
      "name": "bid",
      "outputs": [
        {
          "internalType": "uint256",
          "name": "auctionId",
          "type": "uint256"
        }
      ],
      "payable": false,
      "stateMutability": "nonpayable",
      "type": "function"
    },
    {
      "constant": true,
      "inputs": [
        {
          "internalType": "address",
          "name": "_bidder",
          "type": "address"
        },
        {
          "internalType": "uint256",
          "name": "_auctionId",
          "type": "uint256"
        }
      ],
      "name": "getBid",
      "outputs": [
        {
          "internalType": "uint256",
          "name": "",
          "type": "uint256"
        }
      ],
      "payable": false,
      "stateMutability": "view",
      "type": "function"
    },
    {
      "constant": false,
      "inputs": [],
      "name": "transferToWallet",
      "outputs": [],
      "payable": false,
      "stateMutability": "nonpayable",
      "type": "function"
    }
  ],
  "bytecode": "0x608060405234801561001057600080fd5b50611033806100206000396000f3fe608060405234801561001057600080fd5b506004361061010b5760003560e01c8063521eb273116100a2578063696da92111610071578063696da9211461021e5780638127e801146102265780639abc03d214610284578063afe0e33c1461028c578063fc0c546a146102945761010b565b8063521eb273146101cd57806356e49287146101f1578063571a26a0146101f95780635aef7de6146102165761010b565b80631e9a6950116100de5780631e9a6950146101875780633d1678f4146101b35780634870b81d146101bb57806350d9d472146101c55761010b565b80630b722bbb146101105780630cccfc581461014b57806311c4dbf41461015357806316ab2b031461015b575b600080fd5b6101396004803603606081101561012657600080fd5b508035906020810135906040013561029c565b60408051918252519081900360200190f35b6101396104c8565b6101396104ce565b6101396004803603604081101561017157600080fd5b506001600160a01b0381351690602001356104d4565b6101396004803603604081101561019d57600080fd5b506001600160a01b038135169060200135610500565b6101396107bf565b6101c36107c5565b005b6101396108b3565b6101d56108b9565b604080516001600160a01b039092168252519081900360200190f35b6101396108c8565b6101396004803603602081101561020f57600080fd5b50356108ce565b6101d56108e0565b6101396108ef565b6101c3600480360361012081101561023d57600080fd5b506001600160a01b03813581169160208101359160408201359160608101359160808201359160a08101359160c082013581169160e08101359091169061010001356108f5565b610139610b0c565b610139610b12565b6101d5610b18565b60008160005481146102df5760405162461bcd60e51b8152600401808060200182810382526028815260200180610fb66028913960400191505060405180910390fd5b60008511610334576040805162461bcd60e51b815260206004820152601c60248201527f62696464696e6720616d6f756e742073686f756c64206265203e203000000000604482015290519081900360640190fd5b60045442106103745760405162461bcd60e51b8152600401808060200182810382526033815260200180610f046033913960400191505060405180910390fd5b6005544210156103b55760405162461bcd60e51b8152600401808060200182810382526036815260200180610f806036913960400191505060405180910390fd5b600a546103d3906001600160a01b031633308863ffffffff610b2716565b6008546005544203816103e257fe5b049150838214610431576040805162461bcd60e51b815260206004820152601560248201527461756374696f6e206973206e6f742061637469766560581b604482015290519081900360640190fd5b60008281526001602052604090208054610451908763ffffffff610caa16565b8155336000908152600182016020526040902054610475908763ffffffff610caa16565b336000818152600184016020908152604091829020939093558051898152905186937f19421268847f42dd61705778018ddfc43bcdce8517e7a630acb12f122c709481928290030190a350509392505050565b60085481565b60075481565b60008181526001602081815260408084206001600160a01b038716855290920190529020545b92915050565b60006009544211610551576040805162461bcd60e51b81526020600482015260166024820152756e6f77203e2072656465656d456e61626c6554696d6560501b604482015290519081900360640190fd5b60008281526001602081815260408084206001600160a01b038816855292830190915290912054806105ca576040805162461bcd60e51b815260206004820152601c60248201527f62696464696e6720616d6f756e742073686f756c64206265203e203000000000604482015290519081900360640190fd5b6001600160a01b038516600090815260018301602052604081208190556007546105fb90839063ffffffff610cc316565b835490915061061190829063ffffffff610cea16565b600354909450610627908563ffffffff610d0c16565b60035560025460408051638da5cb5b60e01b815290516001600160a01b0390921691638da5cb5b91600480820192602092909190829003018186803b15801561066f57600080fd5b505afa158015610683573d6000803e3d6000fd5b505050506040513d602081101561069957600080fd5b50516002546040805163757cca5960e11b8152600481018890526001600160a01b038a8116602483015292831660448201529051919092169163eaf994b29160648083019260209291908290030181600087803b1580156106f957600080fd5b505af115801561070d573d6000803e3d6000fd5b505050506040513d602081101561072357600080fd5b5051610776576040805162461bcd60e51b815260206004820152601e60248201527f6d696e742072657075746174696f6e2073686f756c6420737563636565640000604482015290519081900360640190fd5b6040805185815290516001600160a01b0388169187917f1069ba7d3dd3d969eada9a014b1e1a8e2ab1ef7f38989db8ce98e698ac844f659181900360200190a350505092915050565b60095481565b6004544211610813576040805162461bcd60e51b81526020600482015260156024820152746e6f77203e2061756374696f6e73456e6454696d6560581b604482015290519081900360640190fd5b600a54604080516370a0823160e01b815230600482015290516000926001600160a01b0316916370a08231916024808301926020929190829003018186803b15801561085e57600080fd5b505afa158015610872573d6000803e3d6000fd5b505050506040513d602081101561088857600080fd5b5051600b54600a549192506108b0916001600160a01b0390811691168363ffffffff610d2116565b50565b60065481565b600b546001600160a01b031681565b60045481565b60016020526000908152604090205481565b6002546001600160a01b031681565b60005490565b6002546001600160a01b031615610953576040805162461bcd60e51b815260206004820152601b60248201527f63616e2062652063616c6c6564206f6e6c79206f6e652074696d650000000000604482015290519081900360640190fd5b6001600160a01b0389166109a6576040805162461bcd60e51b81526020600482015260156024820152746176617461722063616e6e6f74206265207a65726f60581b604482015290519081900360640190fd5b600085116109e55760405162461bcd60e51b8152600401808060200182810382526021815260200180610fde6021913960400191505060405180910390fd5b600f8611610a3a576040805162461bcd60e51b815260206004820152601c60248201527f61756374696f6e506572696f642073686f756c64206265203e20313500000000604482015290519081900360640190fd5b6008869055610a4f868663ffffffff610cc316565b87016004819055841015610a945760405162461bcd60e51b8152600401808060200182810382526024815260200180610f376024913960400191505060405180910390fd5b600a80546001600160a01b038086166001600160a01b031992831617909255600280548c841690831617905560058990556006879055600b8054928516929091169190911790556007889055610af0888663ffffffff610cc316565b6003556009849055610b0181610ea3565b505050505050505050565b60055481565b60035481565b600a546001600160a01b031681565b610b39846001600160a01b0316610efd565b610b4257600080fd5b60006060856001600160a01b0316604051806060016040528060258152602001610f5b602591398051602091820120604080516001600160a01b03808b166024830152891660448201526064808201899052825180830390910181526084909101825292830180516001600160e01b03166001600160e01b0319909316929092178252518251909182918083835b60208310610bef5780518252601f199092019160209182019101610bd0565b6001836020036101000a0380198251168184511680821785525050505050509050019150506000604051808303816000865af19150503d8060008114610c51576040519150601f19603f3d011682016040523d82523d6000602084013e610c56565b606091505b509150915081610c6557600080fd5b80511580610c99575080516020148015610c99575080601f81518110610c8757fe5b01602001516001600160f81b03191615155b610ca257600080fd5b505050505050565b600082820183811015610cbc57600080fd5b9392505050565b600082610cd2575060006104fa565b82820282848281610cdf57fe5b0414610cbc57600080fd5b6000808211610cf857600080fd5b6000828481610d0357fe5b04949350505050565b600082821115610d1b57600080fd5b50900390565b610d33836001600160a01b0316610efd565b610d3c57600080fd5b604080518082018252601981527f7472616e7366657228616464726573732c75696e74323536290000000000000060209182015281516001600160a01b0385811660248301526044808301869052845180840390910181526064909201845291810180516001600160e01b031663a9059cbb60e01b1781529251815160009460609489169392918291908083835b60208310610de95780518252601f199092019160209182019101610dca565b6001836020036101000a0380198251168184511680821785525050505050509050019150506000604051808303816000865af19150503d8060008114610e4b576040519150601f19603f3d011682016040523d82523d6000602084013e610e50565b606091505b509150915081610e5f57600080fd5b80511580610e93575080516020148015610e93575080601f81518110610e8157fe5b01602001516001600160f81b03191615155b610e9c57600080fd5b5050505050565b60005415610ef8576040805162461bcd60e51b815260206004820152601b60248201527f43616e206e6f74207365742061677265656d656e742074776963650000000000604482015290519081900360640190fd5b600055565b3b15159056fe62696464696e672073686f756c642062652077697468696e2074686520616c6c6f7765642062696464696e6720706572696f645f72656465656d456e61626c6554696d65203e3d2061756374696f6e73456e6454696d657472616e7366657246726f6d28616464726573732c616464726573732c75696e743235362962696464696e6720697320656e61626c65206f6e6c792061667465722062696464696e672061756374696f6e73537461727454696d6553656e646572206d7573742073656e64207468652072696768742061677265656d656e74486173686e756d626572206f662061756374696f6e732063616e6e6f74206265207a65726fa265627a7a7231582012693e97edc1ee3b3fc5615c619aafcc82f73264aaa09fd61ee9e86b5b08078d64736f6c63430005110032",
  "source": "/**\n *Submitted for verification at Etherscan.io on 2019-05-06\n*/\n\n// File: openzeppelin-solidity/contracts/math/SafeMath.sol\n\npragma solidity ^0.5.0;\n\n/**\n * @title SafeMath\n * @dev Unsigned math operations with safety checks that revert on error\n */\nlibrary SafeMath {\n    /**\n    * @dev Multiplies two unsigned integers, reverts on overflow.\n    */\n    function mul(uint256 a, uint256 b) internal pure returns (uint256) {\n        // Gas optimization: this is cheaper than requiring 'a' not being zero, but the\n        // benefit is lost if 'b' is also tested.\n        // See: https://github.com/OpenZeppelin/openzeppelin-solidity/pull/522\n        if (a == 0) {\n            return 0;\n        }\n\n        uint256 c = a * b;\n        require(c / a == b);\n\n        return c;\n    }\n\n    /**\n    * @dev Integer division of two unsigned integers truncating the quotient, reverts on division by zero.\n    */\n    function div(uint256 a, uint256 b) internal pure returns (uint256) {\n        // Solidity only automatically asserts when dividing by 0\n        require(b > 0);\n        uint256 c = a / b;\n        // assert(a == b * c + a % b); // There is no case in which this doesn't hold\n\n        return c;\n    }\n\n    /**\n    * @dev Subtracts two unsigned integers, reverts on overflow (i.e. if subtrahend is greater than minuend).\n    */\n    function sub(uint256 a, uint256 b) internal pure returns (uint256) {\n        require(b <= a);\n        uint256 c = a - b;\n\n        return c;\n    }\n\n    /**\n    * @dev Adds two unsigned integers, reverts on overflow.\n    */\n    function add(uint256 a, uint256 b) internal pure returns (uint256) {\n        uint256 c = a + b;\n        require(c >= a);\n\n        return c;\n    }\n\n    /**\n    * @dev Divides two unsigned integers and returns the remainder (unsigned integer modulo),\n    * reverts when dividing by zero.\n    */\n    function mod(uint256 a, uint256 b) internal pure returns (uint256) {\n        require(b != 0);\n        return a % b;\n    }\n}\n\n// File: openzeppelin-solidity/contracts/ownership/Ownable.sol\n\npragma solidity ^0.5.0;\n\n/**\n * @title Ownable\n * @dev The Ownable contract has an owner address, and provides basic authorization control\n * functions, this simplifies the implementation of \"user permissions\".\n */\ncontract Ownable {\n    address private _owner;\n\n    event OwnershipTransferred(address indexed previousOwner, address indexed newOwner);\n\n    /**\n     * @dev The Ownable constructor sets the original `owner` of the contract to the sender\n     * account.\n     */\n    constructor () internal {\n        _owner = msg.sender;\n        emit OwnershipTransferred(address(0), _owner);\n    }\n\n    /**\n     * @return the address of the owner.\n     */\n    function owner() public view returns (address) {\n        return _owner;\n    }\n\n    /**\n     * @dev Throws if called by any account other than the owner.\n     */\n    modifier onlyOwner() {\n        require(isOwner());\n        _;\n    }\n\n    /**\n     * @return true if `msg.sender` is the owner of the contract.\n     */\n    function isOwner() public view returns (bool) {\n        return msg.sender == _owner;\n    }\n\n    /**\n     * @dev Allows the current owner to relinquish control of the contract.\n     * @notice Renouncing to ownership will leave the contract without an owner.\n     * It will not be possible to call the functions with the `onlyOwner`\n     * modifier anymore.\n     */\n    function renounceOwnership() public onlyOwner {\n        emit OwnershipTransferred(_owner, address(0));\n        _owner = address(0);\n    }\n\n    /**\n     * @dev Allows the current owner to transfer control of the contract to a newOwner.\n     * @param newOwner The address to transfer ownership to.\n     */\n    function transferOwnership(address newOwner) public onlyOwner {\n        _transferOwnership(newOwner);\n    }\n\n    /**\n     * @dev Transfers control of the contract to a newOwner.\n     * @param newOwner The address to transfer ownership to.\n     */\n    function _transferOwnership(address newOwner) internal {\n        require(newOwner != address(0));\n        emit OwnershipTransferred(_owner, newOwner);\n        _owner = newOwner;\n    }\n}\n\n// File: @daostack/infra/contracts/Reputation.sol\n\npragma solidity ^0.5.4;\n\n\n\n/**\n * @title Reputation system\n * @dev A DAO has Reputation System which allows peers to rate other peers in order to build trust .\n * A reputation is use to assign influence measure to a DAO'S peers.\n * Reputation is similar to regular tokens but with one crucial difference: It is non-transferable.\n * The Reputation contract maintain a map of address to reputation value.\n * It provides an onlyOwner functions to mint and burn reputation _to (or _from) a specific address.\n */\n\ncontract Reputation is Ownable {\n\n    uint8 public decimals = 18;             //Number of decimals of the smallest unit\n    // Event indicating minting of reputation to an address.\n    event Mint(address indexed _to, uint256 _amount);\n    // Event indicating burning of reputation for an address.\n    event Burn(address indexed _from, uint256 _amount);\n\n      /// @dev `Checkpoint` is the structure that attaches a block number to a\n      ///  given value, the block number attached is the one that last changed the\n      ///  value\n    struct Checkpoint {\n\n    // `fromBlock` is the block number that the value was generated from\n        uint128 fromBlock;\n\n          // `value` is the amount of reputation at a specific block number\n        uint128 value;\n    }\n\n      // `balances` is the map that tracks the balance of each address, in this\n      //  contract when the balance changes the block number that the change\n      //  occurred is also included in the map\n    mapping (address => Checkpoint[]) balances;\n\n      // Tracks the history of the `totalSupply` of the reputation\n    Checkpoint[] totalSupplyHistory;\n\n    /// @notice Constructor to create a Reputation\n    constructor(\n    ) public\n    {\n    }\n\n    /// @dev This function makes it easy to get the total number of reputation\n    /// @return The total number of reputation\n    function totalSupply() public view returns (uint256) {\n        return totalSupplyAt(block.number);\n    }\n\n  ////////////////\n  // Query balance and totalSupply in History\n  ////////////////\n    /**\n    * @dev return the reputation amount of a given owner\n    * @param _owner an address of the owner which we want to get his reputation\n    */\n    function balanceOf(address _owner) public view returns (uint256 balance) {\n        return balanceOfAt(_owner, block.number);\n    }\n\n      /// @dev Queries the balance of `_owner` at a specific `_blockNumber`\n      /// @param _owner The address from which the balance will be retrieved\n      /// @param _blockNumber The block number when the balance is queried\n      /// @return The balance at `_blockNumber`\n    function balanceOfAt(address _owner, uint256 _blockNumber)\n    public view returns (uint256)\n    {\n        if ((balances[_owner].length == 0) || (balances[_owner][0].fromBlock > _blockNumber)) {\n            return 0;\n          // This will return the expected balance during normal situations\n        } else {\n            return getValueAt(balances[_owner], _blockNumber);\n        }\n    }\n\n      /// @notice Total amount of reputation at a specific `_blockNumber`.\n      /// @param _blockNumber The block number when the totalSupply is queried\n      /// @return The total amount of reputation at `_blockNumber`\n    function totalSupplyAt(uint256 _blockNumber) public view returns(uint256) {\n        if ((totalSupplyHistory.length == 0) || (totalSupplyHistory[0].fromBlock > _blockNumber)) {\n            return 0;\n          // This will return the expected totalSupply during normal situations\n        } else {\n            return getValueAt(totalSupplyHistory, _blockNumber);\n        }\n    }\n\n      /// @notice Generates `_amount` reputation that are assigned to `_owner`\n      /// @param _user The address that will be assigned the new reputation\n      /// @param _amount The quantity of reputation generated\n      /// @return True if the reputation are generated correctly\n    function mint(address _user, uint256 _amount) public onlyOwner returns (bool) {\n        uint256 curTotalSupply = totalSupply();\n        require(curTotalSupply + _amount >= curTotalSupply); // Check for overflow\n        uint256 previousBalanceTo = balanceOf(_user);\n        require(previousBalanceTo + _amount >= previousBalanceTo); // Check for overflow\n        updateValueAtNow(totalSupplyHistory, curTotalSupply + _amount);\n        updateValueAtNow(balances[_user], previousBalanceTo + _amount);\n        emit Mint(_user, _amount);\n        return true;\n    }\n\n      /// @notice Burns `_amount` reputation from `_owner`\n      /// @param _user The address that will lose the reputation\n      /// @param _amount The quantity of reputation to burn\n      /// @return True if the reputation are burned correctly\n    function burn(address _user, uint256 _amount) public onlyOwner returns (bool) {\n        uint256 curTotalSupply = totalSupply();\n        uint256 amountBurned = _amount;\n        uint256 previousBalanceFrom = balanceOf(_user);\n        if (previousBalanceFrom < amountBurned) {\n            amountBurned = previousBalanceFrom;\n        }\n        updateValueAtNow(totalSupplyHistory, curTotalSupply - amountBurned);\n        updateValueAtNow(balances[_user], previousBalanceFrom - amountBurned);\n        emit Burn(_user, amountBurned);\n        return true;\n    }\n\n  ////////////////\n  // Internal helper functions to query and set a value in a snapshot array\n  ////////////////\n\n      /// @dev `getValueAt` retrieves the number of reputation at a given block number\n      /// @param checkpoints The history of values being queried\n      /// @param _block The block number to retrieve the value at\n      /// @return The number of reputation being queried\n    function getValueAt(Checkpoint[] storage checkpoints, uint256 _block) internal view returns (uint256) {\n        if (checkpoints.length == 0) {\n            return 0;\n        }\n\n          // Shortcut for the actual value\n        if (_block >= checkpoints[checkpoints.length-1].fromBlock) {\n            return checkpoints[checkpoints.length-1].value;\n        }\n        if (_block < checkpoints[0].fromBlock) {\n            return 0;\n        }\n\n          // Binary search of the value in the array\n        uint256 min = 0;\n        uint256 max = checkpoints.length-1;\n        while (max > min) {\n            uint256 mid = (max + min + 1) / 2;\n            if (checkpoints[mid].fromBlock<=_block) {\n                min = mid;\n            } else {\n                max = mid-1;\n            }\n        }\n        return checkpoints[min].value;\n    }\n\n      /// @dev `updateValueAtNow` used to update the `balances` map and the\n      ///  `totalSupplyHistory`\n      /// @param checkpoints The history of data being updated\n      /// @param _value The new number of reputation\n    function updateValueAtNow(Checkpoint[] storage checkpoints, uint256 _value) internal {\n        require(uint128(_value) == _value); //check value is in the 128 bits bounderies\n        if ((checkpoints.length == 0) || (checkpoints[checkpoints.length - 1].fromBlock < block.number)) {\n            Checkpoint storage newCheckPoint = checkpoints[checkpoints.length++];\n            newCheckPoint.fromBlock = uint128(block.number);\n            newCheckPoint.value = uint128(_value);\n        } else {\n            Checkpoint storage oldCheckPoint = checkpoints[checkpoints.length-1];\n            oldCheckPoint.value = uint128(_value);\n        }\n    }\n}\n\n// File: openzeppelin-solidity/contracts/token/ERC20/IERC20.sol\n\npragma solidity ^0.5.0;\n\n/**\n * @title ERC20 interface\n * @dev see https://github.com/ethereum/EIPs/issues/20\n */\ninterface IERC20 {\n    function transfer(address to, uint256 value) external returns (bool);\n\n    function approve(address spender, uint256 value) external returns (bool);\n\n    function transferFrom(address from, address to, uint256 value) external returns (bool);\n\n    function totalSupply() external view returns (uint256);\n\n    function balanceOf(address who) external view returns (uint256);\n\n    function allowance(address owner, address spender) external view returns (uint256);\n\n    event Transfer(address indexed from, address indexed to, uint256 value);\n\n    event Approval(address indexed owner, address indexed spender, uint256 value);\n}\n\n// File: openzeppelin-solidity/contracts/token/ERC20/ERC20.sol\n\npragma solidity ^0.5.0;\n\n\n\n/**\n * @title Standard ERC20 token\n *\n * @dev Implementation of the basic standard token.\n * https://github.com/ethereum/EIPs/blob/master/EIPS/eip-20.md\n * Originally based on code by FirstBlood:\n * https://github.com/Firstbloodio/token/blob/master/smart_contract/FirstBloodToken.sol\n *\n * This implementation emits additional Approval events, allowing applications to reconstruct the allowance status for\n * all accounts just by listening to said events. Note that this isn't required by the specification, and other\n * compliant implementations may not do it.\n */\ncontract ERC20 is IERC20 {\n    using SafeMath for uint256;\n\n    mapping (address => uint256) private _balances;\n\n    mapping (address => mapping (address => uint256)) private _allowed;\n\n    uint256 private _totalSupply;\n\n    /**\n    * @dev Total number of tokens in existence\n    */\n    function totalSupply() public view returns (uint256) {\n        return _totalSupply;\n    }\n\n    /**\n    * @dev Gets the balance of the specified address.\n    * @param owner The address to query the balance of.\n    * @return An uint256 representing the amount owned by the passed address.\n    */\n    function balanceOf(address owner) public view returns (uint256) {\n        return _balances[owner];\n    }\n\n    /**\n     * @dev Function to check the amount of tokens that an owner allowed to a spender.\n     * @param owner address The address which owns the funds.\n     * @param spender address The address which will spend the funds.\n     * @return A uint256 specifying the amount of tokens still available for the spender.\n     */\n    function allowance(address owner, address spender) public view returns (uint256) {\n        return _allowed[owner][spender];\n    }\n\n    /**\n    * @dev Transfer token for a specified address\n    * @param to The address to transfer to.\n    * @param value The amount to be transferred.\n    */\n    function transfer(address to, uint256 value) public returns (bool) {\n        _transfer(msg.sender, to, value);\n        return true;\n    }\n\n    /**\n     * @dev Approve the passed address to spend the specified amount of tokens on behalf of msg.sender.\n     * Beware that changing an allowance with this method brings the risk that someone may use both the old\n     * and the new allowance by unfortunate transaction ordering. One possible solution to mitigate this\n     * race condition is to first reduce the spender's allowance to 0 and set the desired value afterwards:\n     * https://github.com/ethereum/EIPs/issues/20#issuecomment-263524729\n     * @param spender The address which will spend the funds.\n     * @param value The amount of tokens to be spent.\n     */\n    function approve(address spender, uint256 value) public returns (bool) {\n        require(spender != address(0));\n\n        _allowed[msg.sender][spender] = value;\n        emit Approval(msg.sender, spender, value);\n        return true;\n    }\n\n    /**\n     * @dev Transfer tokens from one address to another.\n     * Note that while this function emits an Approval event, this is not required as per the specification,\n     * and other compliant implementations may not emit the event.\n     * @param from address The address which you want to send tokens from\n     * @param to address The address which you want to transfer to\n     * @param value uint256 the amount of tokens to be transferred\n     */\n    function transferFrom(address from, address to, uint256 value) public returns (bool) {\n        _allowed[from][msg.sender] = _allowed[from][msg.sender].sub(value);\n        _transfer(from, to, value);\n        emit Approval(from, msg.sender, _allowed[from][msg.sender]);\n        return true;\n    }\n\n    /**\n     * @dev Increase the amount of tokens that an owner allowed to a spender.\n     * approve should be called when allowed_[_spender] == 0. To increment\n     * allowed value is better to use this function to avoid 2 calls (and wait until\n     * the first transaction is mined)\n     * From MonolithDAO Token.sol\n     * Emits an Approval event.\n     * @param spender The address which will spend the funds.\n     * @param addedValue The amount of tokens to increase the allowance by.\n     */\n    function increaseAllowance(address spender, uint256 addedValue) public returns (bool) {\n        require(spender != address(0));\n\n        _allowed[msg.sender][spender] = _allowed[msg.sender][spender].add(addedValue);\n        emit Approval(msg.sender, spender, _allowed[msg.sender][spender]);\n        return true;\n    }\n\n    /**\n     * @dev Decrease the amount of tokens that an owner allowed to a spender.\n     * approve should be called when allowed_[_spender] == 0. To decrement\n     * allowed value is better to use this function to avoid 2 calls (and wait until\n     * the first transaction is mined)\n     * From MonolithDAO Token.sol\n     * Emits an Approval event.\n     * @param spender The address which will spend the funds.\n     * @param subtractedValue The amount of tokens to decrease the allowance by.\n     */\n    function decreaseAllowance(address spender, uint256 subtractedValue) public returns (bool) {\n        require(spender != address(0));\n\n        _allowed[msg.sender][spender] = _allowed[msg.sender][spender].sub(subtractedValue);\n        emit Approval(msg.sender, spender, _allowed[msg.sender][spender]);\n        return true;\n    }\n\n    /**\n    * @dev Transfer token for a specified addresses\n    * @param from The address to transfer from.\n    * @param to The address to transfer to.\n    * @param value The amount to be transferred.\n    */\n    function _transfer(address from, address to, uint256 value) internal {\n        require(to != address(0));\n\n        _balances[from] = _balances[from].sub(value);\n        _balances[to] = _balances[to].add(value);\n        emit Transfer(from, to, value);\n    }\n\n    /**\n     * @dev Internal function that mints an amount of the token and assigns it to\n     * an account. This encapsulates the modification of balances such that the\n     * proper events are emitted.\n     * @param account The account that will receive the created tokens.\n     * @param value The amount that will be created.\n     */\n    function _mint(address account, uint256 value) internal {\n        require(account != address(0));\n\n        _totalSupply = _totalSupply.add(value);\n        _balances[account] = _balances[account].add(value);\n        emit Transfer(address(0), account, value);\n    }\n\n    /**\n     * @dev Internal function that burns an amount of the token of a given\n     * account.\n     * @param account The account whose tokens will be burnt.\n     * @param value The amount that will be burnt.\n     */\n    function _burn(address account, uint256 value) internal {\n        require(account != address(0));\n\n        _totalSupply = _totalSupply.sub(value);\n        _balances[account] = _balances[account].sub(value);\n        emit Transfer(account, address(0), value);\n    }\n\n    /**\n     * @dev Internal function that burns an amount of the token of a given\n     * account, deducting from the sender's allowance for said account. Uses the\n     * internal burn function.\n     * Emits an Approval event (reflecting the reduced allowance).\n     * @param account The account whose tokens will be burnt.\n     * @param value The amount that will be burnt.\n     */\n    function _burnFrom(address account, uint256 value) internal {\n        _allowed[account][msg.sender] = _allowed[account][msg.sender].sub(value);\n        _burn(account, value);\n        emit Approval(account, msg.sender, _allowed[account][msg.sender]);\n    }\n}\n\n// File: openzeppelin-solidity/contracts/token/ERC20/ERC20Burnable.sol\n\npragma solidity ^0.5.0;\n\n\n/**\n * @title Burnable Token\n * @dev Token that can be irreversibly burned (destroyed).\n */\ncontract ERC20Burnable is ERC20 {\n    /**\n     * @dev Burns a specific amount of tokens.\n     * @param value The amount of token to be burned.\n     */\n    function burn(uint256 value) public {\n        _burn(msg.sender, value);\n    }\n\n    /**\n     * @dev Burns a specific amount of tokens from the target address and decrements allowance\n     * @param from address The address which you want to send tokens from\n     * @param value uint256 The amount of token to be burned\n     */\n    function burnFrom(address from, uint256 value) public {\n        _burnFrom(from, value);\n    }\n}\n\n// File: @daostack/arc/contracts/controller/DAOToken.sol\n\npragma solidity ^0.5.4;\n\n\n\n\n\n/**\n * @title DAOToken, base on zeppelin contract.\n * @dev ERC20 compatible token. It is a mintable, burnable token.\n */\n\ncontract DAOToken is ERC20, ERC20Burnable, Ownable {\n\n    string public name;\n    string public symbol;\n    // solhint-disable-next-line const-name-snakecase\n    uint8 public constant decimals = 18;\n    uint256 public cap;\n\n    /**\n    * @dev Constructor\n    * @param _name - token name\n    * @param _symbol - token symbol\n    * @param _cap - token cap - 0 value means no cap\n    */\n    constructor(string memory _name, string memory _symbol, uint256 _cap)\n    public {\n        name = _name;\n        symbol = _symbol;\n        cap = _cap;\n    }\n\n    /**\n     * @dev Function to mint tokens\n     * @param _to The address that will receive the minted tokens.\n     * @param _amount The amount of tokens to mint.\n     */\n    function mint(address _to, uint256 _amount) public onlyOwner returns (bool) {\n        if (cap > 0)\n            require(totalSupply().add(_amount) <= cap);\n        _mint(_to, _amount);\n        return true;\n    }\n}\n\n// File: openzeppelin-solidity/contracts/utils/Address.sol\n\npragma solidity ^0.5.0;\n\n/**\n * Utility library of inline functions on addresses\n */\nlibrary Address {\n    /**\n     * Returns whether the target address is a contract\n     * @dev This function will return false if invoked during the constructor of a contract,\n     * as the code is not actually created until after the constructor finishes.\n     * @param account address of the account to check\n     * @return whether the target address is a contract\n     */\n    function isContract(address account) internal view returns (bool) {\n        uint256 size;\n        // XXX Currently there is no better way to check if there is a contract in an address\n        // than to check the size of the code at that address.\n        // See https://ethereum.stackexchange.com/a/14016/36603\n        // for more details about how this works.\n        // TODO Check this again before the Serenity release, because all addresses will be\n        // contracts then.\n        // solhint-disable-next-line no-inline-assembly\n        assembly { size := extcodesize(account) }\n        return size > 0;\n    }\n}\n\n// File: @daostack/arc/contracts/libs/SafeERC20.sol\n\n/*\n\nSafeERC20 by daostack.\nThe code is based on a fix by SECBIT Team.\n\nUSE WITH CAUTION & NO WARRANTY\n\nREFERENCE & RELATED READING\n- https://github.com/ethereum/solidity/issues/4116\n- https://medium.com/@chris_77367/explaining-unexpected-reverts-starting-with-solidity-0-4-22-3ada6e82308c\n- https://medium.com/coinmonks/missing-return-value-bug-at-least-130-tokens-affected-d67bf08521ca\n- https://gist.github.com/BrendanChou/88a2eeb80947ff00bcf58ffdafeaeb61\n\n*/\npragma solidity ^0.5.4;\n\n\n\nlibrary SafeERC20 {\n    using Address for address;\n\n    bytes4 constant private TRANSFER_SELECTOR = bytes4(keccak256(bytes(\"transfer(address,uint256)\")));\n    bytes4 constant private TRANSFERFROM_SELECTOR = bytes4(keccak256(bytes(\"transferFrom(address,address,uint256)\")));\n    bytes4 constant private APPROVE_SELECTOR = bytes4(keccak256(bytes(\"approve(address,uint256)\")));\n\n    function safeTransfer(address _erc20Addr, address _to, uint256 _value) internal {\n\n        // Must be a contract addr first!\n        require(_erc20Addr.isContract());\n\n        (bool success, bytes memory returnValue) =\n        // solhint-disable-next-line avoid-low-level-calls\n        _erc20Addr.call(abi.encodeWithSelector(TRANSFER_SELECTOR, _to, _value));\n        // call return false when something wrong\n        require(success);\n        //check return value\n        require(returnValue.length == 0 || (returnValue.length == 32 && (returnValue[31] != 0)));\n    }\n\n    function safeTransferFrom(address _erc20Addr, address _from, address _to, uint256 _value) internal {\n\n        // Must be a contract addr first!\n        require(_erc20Addr.isContract());\n\n        (bool success, bytes memory returnValue) =\n        // solhint-disable-next-line avoid-low-level-calls\n        _erc20Addr.call(abi.encodeWithSelector(TRANSFERFROM_SELECTOR, _from, _to, _value));\n        // call return false when something wrong\n        require(success);\n        //check return value\n        require(returnValue.length == 0 || (returnValue.length == 32 && (returnValue[31] != 0)));\n    }\n\n    function safeApprove(address _erc20Addr, address _spender, uint256 _value) internal {\n\n        // Must be a contract addr first!\n        require(_erc20Addr.isContract());\n\n        // safeApprove should only be called when setting an initial allowance,\n        // or when resetting it to zero.\n        require((_value == 0) || (IERC20(_erc20Addr).allowance(address(this), _spender) == 0));\n\n        (bool success, bytes memory returnValue) =\n        // solhint-disable-next-line avoid-low-level-calls\n        _erc20Addr.call(abi.encodeWithSelector(APPROVE_SELECTOR, _spender, _value));\n        // call return false when something wrong\n        require(success);\n        //check return value\n        require(returnValue.length == 0 || (returnValue.length == 32 && (returnValue[31] != 0)));\n    }\n}\n\n// File: @daostack/arc/contracts/controller/Avatar.sol\n\npragma solidity ^0.5.4;\n\n\n\n\n\n\n\n/**\n * @title An Avatar holds tokens, reputation and ether for a controller\n */\ncontract Avatar is Ownable {\n    using SafeERC20 for address;\n\n    string public orgName;\n    DAOToken public nativeToken;\n    Reputation public nativeReputation;\n\n    event GenericCall(address indexed _contract, bytes _data, uint _value, bool _success);\n    event SendEther(uint256 _amountInWei, address indexed _to);\n    event ExternalTokenTransfer(address indexed _externalToken, address indexed _to, uint256 _value);\n    event ExternalTokenTransferFrom(address indexed _externalToken, address _from, address _to, uint256 _value);\n    event ExternalTokenApproval(address indexed _externalToken, address _spender, uint256 _value);\n    event ReceiveEther(address indexed _sender, uint256 _value);\n    event MetaData(string _metaData);\n\n    /**\n    * @dev the constructor takes organization name, native token and reputation system\n    and creates an avatar for a controller\n    */\n    constructor(string memory _orgName, DAOToken _nativeToken, Reputation _nativeReputation) public {\n        orgName = _orgName;\n        nativeToken = _nativeToken;\n        nativeReputation = _nativeReputation;\n    }\n\n    /**\n    * @dev enables an avatar to receive ethers\n    */\n    function() external payable {\n        emit ReceiveEther(msg.sender, msg.value);\n    }\n\n    /**\n    * @dev perform a generic call to an arbitrary contract\n    * @param _contract  the contract's address to call\n    * @param _data ABI-encoded contract call to call `_contract` address.\n    * @param _value value (ETH) to transfer with the transaction\n    * @return bool    success or fail\n    *         bytes - the return bytes of the called contract's function.\n    */\n    function genericCall(address _contract, bytes memory _data, uint256 _value)\n    public\n    onlyOwner\n    returns(bool success, bytes memory returnValue) {\n      // solhint-disable-next-line avoid-call-value\n        (success, returnValue) = _contract.call.value(_value)(_data);\n        emit GenericCall(_contract, _data, _value, success);\n    }\n\n    /**\n    * @dev send ethers from the avatar's wallet\n    * @param _amountInWei amount to send in Wei units\n    * @param _to send the ethers to this address\n    * @return bool which represents success\n    */\n    function sendEther(uint256 _amountInWei, address payable _to) public onlyOwner returns(bool) {\n        _to.transfer(_amountInWei);\n        emit SendEther(_amountInWei, _to);\n        return true;\n    }\n\n    /**\n    * @dev external token transfer\n    * @param _externalToken the token contract\n    * @param _to the destination address\n    * @param _value the amount of tokens to transfer\n    * @return bool which represents success\n    */\n    function externalTokenTransfer(IERC20 _externalToken, address _to, uint256 _value)\n    public onlyOwner returns(bool)\n    {\n        address(_externalToken).safeTransfer(_to, _value);\n        emit ExternalTokenTransfer(address(_externalToken), _to, _value);\n        return true;\n    }\n\n    /**\n    * @dev external token transfer from a specific account\n    * @param _externalToken the token contract\n    * @param _from the account to spend token from\n    * @param _to the destination address\n    * @param _value the amount of tokens to transfer\n    * @return bool which represents success\n    */\n    function externalTokenTransferFrom(\n        IERC20 _externalToken,\n        address _from,\n        address _to,\n        uint256 _value\n    )\n    public onlyOwner returns(bool)\n    {\n        address(_externalToken).safeTransferFrom(_from, _to, _value);\n        emit ExternalTokenTransferFrom(address(_externalToken), _from, _to, _value);\n        return true;\n    }\n\n    /**\n    * @dev externalTokenApproval approve the spender address to spend a specified amount of tokens\n    *      on behalf of msg.sender.\n    * @param _externalToken the address of the Token Contract\n    * @param _spender address\n    * @param _value the amount of ether (in Wei) which the approval is referring to.\n    * @return bool which represents a success\n    */\n    function externalTokenApproval(IERC20 _externalToken, address _spender, uint256 _value)\n    public onlyOwner returns(bool)\n    {\n        address(_externalToken).safeApprove(_spender, _value);\n        emit ExternalTokenApproval(address(_externalToken), _spender, _value);\n        return true;\n    }\n\n    /**\n    * @dev metaData emits an event with a string, should contain the hash of some meta data.\n    * @param _metaData a string representing a hash of the meta data\n    * @return bool which represents a success\n    */\n    function metaData(string memory _metaData) public onlyOwner returns(bool) {\n        emit MetaData(_metaData);\n        return true;\n    }\n\n\n}\n\n// File: @daostack/arc/contracts/globalConstraints/GlobalConstraintInterface.sol\n\npragma solidity ^0.5.4;\n\n\ncontract GlobalConstraintInterface {\n\n    enum CallPhase { Pre, Post, PreAndPost }\n\n    function pre( address _scheme, bytes32 _params, bytes32 _method ) public returns(bool);\n    function post( address _scheme, bytes32 _params, bytes32 _method ) public returns(bool);\n    /**\n     * @dev when return if this globalConstraints is pre, post or both.\n     * @return CallPhase enum indication  Pre, Post or PreAndPost.\n     */\n    function when() public returns(CallPhase);\n}\n\n// File: @daostack/arc/contracts/controller/ControllerInterface.sol\n\npragma solidity ^0.5.4;\n\n\n\n/**\n * @title Controller contract\n * @dev A controller controls the organizations tokens ,reputation and avatar.\n * It is subject to a set of schemes and constraints that determine its behavior.\n * Each scheme has it own parameters and operation permissions.\n */\ninterface ControllerInterface {\n\n    /**\n     * @dev Mint `_amount` of reputation that are assigned to `_to` .\n     * @param  _amount amount of reputation to mint\n     * @param _to beneficiary address\n     * @return bool which represents a success\n    */\n    function mintReputation(uint256 _amount, address _to, address _avatar)\n    external\n    returns(bool);\n\n    /**\n     * @dev Burns `_amount` of reputation from `_from`\n     * @param _amount amount of reputation to burn\n     * @param _from The address that will lose the reputation\n     * @return bool which represents a success\n     */\n    function burnReputation(uint256 _amount, address _from, address _avatar)\n    external\n    returns(bool);\n\n    /**\n     * @dev mint tokens .\n     * @param  _amount amount of token to mint\n     * @param _beneficiary beneficiary address\n     * @param _avatar address\n     * @return bool which represents a success\n     */\n    function mintTokens(uint256 _amount, address _beneficiary, address _avatar)\n    external\n    returns(bool);\n\n  /**\n   * @dev register or update a scheme\n   * @param _scheme the address of the scheme\n   * @param _paramsHash a hashed configuration of the usage of the scheme\n   * @param _permissions the permissions the new scheme will have\n   * @param _avatar address\n   * @return bool which represents a success\n   */\n    function registerScheme(address _scheme, bytes32 _paramsHash, bytes4 _permissions, address _avatar)\n    external\n    returns(bool);\n\n    /**\n     * @dev unregister a scheme\n     * @param _avatar address\n     * @param _scheme the address of the scheme\n     * @return bool which represents a success\n     */\n    function unregisterScheme(address _scheme, address _avatar)\n    external\n    returns(bool);\n\n    /**\n     * @dev unregister the caller's scheme\n     * @param _avatar address\n     * @return bool which represents a success\n     */\n    function unregisterSelf(address _avatar) external returns(bool);\n\n    /**\n     * @dev add or update Global Constraint\n     * @param _globalConstraint the address of the global constraint to be added.\n     * @param _params the constraint parameters hash.\n     * @param _avatar the avatar of the organization\n     * @return bool which represents a success\n     */\n    function addGlobalConstraint(address _globalConstraint, bytes32 _params, address _avatar)\n    external returns(bool);\n\n    /**\n     * @dev remove Global Constraint\n     * @param _globalConstraint the address of the global constraint to be remove.\n     * @param _avatar the organization avatar.\n     * @return bool which represents a success\n     */\n    function removeGlobalConstraint (address _globalConstraint, address _avatar)\n    external  returns(bool);\n\n  /**\n    * @dev upgrade the Controller\n    *      The function will trigger an event 'UpgradeController'.\n    * @param  _newController the address of the new controller.\n    * @param _avatar address\n    * @return bool which represents a success\n    */\n    function upgradeController(address _newController, Avatar _avatar)\n    external returns(bool);\n\n    /**\n    * @dev perform a generic call to an arbitrary contract\n    * @param _contract  the contract's address to call\n    * @param _data ABI-encoded contract call to call `_contract` address.\n    * @param _avatar the controller's avatar address\n    * @param _value value (ETH) to transfer with the transaction\n    * @return bool -success\n    *         bytes  - the return value of the called _contract's function.\n    */\n    function genericCall(address _contract, bytes calldata _data, Avatar _avatar, uint256 _value)\n    external\n    returns(bool, bytes memory);\n\n  /**\n   * @dev send some ether\n   * @param _amountInWei the amount of ether (in Wei) to send\n   * @param _to address of the beneficiary\n   * @param _avatar address\n   * @return bool which represents a success\n   */\n    function sendEther(uint256 _amountInWei, address payable _to, Avatar _avatar)\n    external returns(bool);\n\n    /**\n    * @dev send some amount of arbitrary ERC20 Tokens\n    * @param _externalToken the address of the Token Contract\n    * @param _to address of the beneficiary\n    * @param _value the amount of ether (in Wei) to send\n    * @param _avatar address\n    * @return bool which represents a success\n    */\n    function externalTokenTransfer(IERC20 _externalToken, address _to, uint256 _value, Avatar _avatar)\n    external\n    returns(bool);\n\n    /**\n    * @dev transfer token \"from\" address \"to\" address\n    *      One must to approve the amount of tokens which can be spend from the\n    *      \"from\" account.This can be done using externalTokenApprove.\n    * @param _externalToken the address of the Token Contract\n    * @param _from address of the account to send from\n    * @param _to address of the beneficiary\n    * @param _value the amount of ether (in Wei) to send\n    * @param _avatar address\n    * @return bool which represents a success\n    */\n    function externalTokenTransferFrom(\n    IERC20 _externalToken,\n    address _from,\n    address _to,\n    uint256 _value,\n    Avatar _avatar)\n    external\n    returns(bool);\n\n    /**\n    * @dev externalTokenApproval approve the spender address to spend a specified amount of tokens\n    *      on behalf of msg.sender.\n    * @param _externalToken the address of the Token Contract\n    * @param _spender address\n    * @param _value the amount of ether (in Wei) which the approval is referring to.\n    * @return bool which represents a success\n    */\n    function externalTokenApproval(IERC20 _externalToken, address _spender, uint256 _value, Avatar _avatar)\n    external\n    returns(bool);\n\n    /**\n    * @dev metaData emits an event with a string, should contain the hash of some meta data.\n    * @param _metaData a string representing a hash of the meta data\n    * @param _avatar Avatar\n    * @return bool which represents a success\n    */\n    function metaData(string calldata _metaData, Avatar _avatar) external returns(bool);\n\n    /**\n     * @dev getNativeReputation\n     * @param _avatar the organization avatar.\n     * @return organization native reputation\n     */\n    function getNativeReputation(address _avatar)\n    external\n    view\n    returns(address);\n\n    function isSchemeRegistered( address _scheme, address _avatar) external view returns(bool);\n\n    function getSchemeParameters(address _scheme, address _avatar) external view returns(bytes32);\n\n    function getGlobalConstraintParameters(address _globalConstraint, address _avatar) external view returns(bytes32);\n\n    function getSchemePermissions(address _scheme, address _avatar) external view returns(bytes4);\n\n    /**\n     * @dev globalConstraintsCount return the global constraint pre and post count\n     * @return uint256 globalConstraintsPre count.\n     * @return uint256 globalConstraintsPost count.\n     */\n    function globalConstraintsCount(address _avatar) external view returns(uint, uint);\n\n    function isGlobalConstraintRegistered(address _globalConstraint, address _avatar) external view returns(bool);\n}\n\n// File: @daostack/arc/contracts/schemes/Agreement.sol\n\npragma solidity ^0.5.4;\n\n/**\n * @title A scheme for conduct ERC20 Tokens auction for reputation\n */\n\n\ncontract Agreement {\n\n    bytes32 private agreementHash;\n\n    modifier onlyAgree(bytes32 _agreementHash) {\n        require(_agreementHash == agreementHash, \"Sender must send the right agreementHash\");\n        _;\n    }\n\n    /**\n     * @dev getAgreementHash\n     * @return bytes32 agreementHash\n     */\n    function getAgreementHash() external  view returns(bytes32)\n    {\n        return agreementHash;\n    }\n\n    /**\n     * @dev setAgreementHash\n     * @param _agreementHash is a hash of agreement required to be added to the TX by participants\n     */\n    function setAgreementHash(bytes32 _agreementHash) internal\n    {\n        require(agreementHash == bytes32(0), \"Can not set agreement twice\");\n        agreementHash = _agreementHash;\n    }\n\n\n}\n\n// File: @daostack/arc/contracts/schemes/Auction4Reputation.sol\n\npragma solidity ^0.5.4;\n\n\n\n\n\n/**\n * @title A scheme for conduct ERC20 Tokens auction for reputation\n */\n\n\ncontract Auction4Reputation is Agreement {\n    using SafeMath for uint256;\n    using SafeERC20 for address;\n\n    event Bid(address indexed _bidder, uint256 indexed _auctionId, uint256 _amount);\n    event Redeem(uint256 indexed _auctionId, address indexed _beneficiary, uint256 _amount);\n\n    struct Auction {\n        uint256 totalBid;\n        // A mapping from bidder addresses to their bids.\n        mapping(address=>uint) bids;\n    }\n\n    // A mapping from auction index to auction.\n    mapping(uint=>Auction) public auctions;\n\n    Avatar public avatar;\n    uint256 public reputationRewardLeft;\n    uint256 public auctionsEndTime;\n    uint256 public auctionsStartTime;\n    uint256 public numberOfAuctions;\n    uint256 public auctionReputationReward;\n    uint256 public auctionPeriod;\n    uint256 public redeemEnableTime;\n    IERC20 public token;\n    address public wallet;\n\n    /**\n     * @dev initialize\n     * @param _avatar the avatar to mint reputation from\n     * @param _auctionReputationReward the reputation reward per auction this contract will reward\n     *        for the token locking\n     * @param _auctionsStartTime auctions period start time\n     * @param _auctionPeriod auctions period time.\n     *        auctionsEndTime is set to _auctionsStartTime + _auctionPeriod*_numberOfAuctions\n     *        bidding is disable after auctionsEndTime.\n     * @param _numberOfAuctions number of auctions.\n     * @param _redeemEnableTime redeem enable time .\n     *        redeem reputation can be done after this time.\n     * @param _token the bidding token\n     * @param  _wallet the address of the wallet the token will be transfer to.\n     *         Please note that _wallet address should be a trusted account.\n     *         Normally this address should be set as the DAO's avatar address.\n     * @param _agreementHash is a hash of agreement required to be added to the TX by participants\n     */\n    function initialize(\n        Avatar _avatar,\n        uint256 _auctionReputationReward,\n        uint256 _auctionsStartTime,\n        uint256 _auctionPeriod,\n        uint256 _numberOfAuctions,\n        uint256 _redeemEnableTime,\n        IERC20 _token,\n        address _wallet,\n        bytes32 _agreementHash )\n    external\n    {\n        require(avatar == Avatar(0), \"can be called only one time\");\n        require(_avatar != Avatar(0), \"avatar cannot be zero\");\n        require(_numberOfAuctions > 0, \"number of auctions cannot be zero\");\n        //_auctionPeriod should be greater than block interval\n        require(_auctionPeriod > 15, \"auctionPeriod should be > 15\");\n        auctionPeriod = _auctionPeriod;\n        auctionsEndTime = _auctionsStartTime + _auctionPeriod.mul(_numberOfAuctions);\n        require(_redeemEnableTime >= auctionsEndTime, \"_redeemEnableTime >= auctionsEndTime\");\n        token = _token;\n        avatar = _avatar;\n        auctionsStartTime = _auctionsStartTime;\n        numberOfAuctions = _numberOfAuctions;\n        wallet = _wallet;\n        auctionReputationReward = _auctionReputationReward;\n        reputationRewardLeft = _auctionReputationReward.mul(_numberOfAuctions);\n        redeemEnableTime = _redeemEnableTime;\n        super.setAgreementHash(_agreementHash);\n    }\n\n    /**\n     * @dev redeem reputation function\n     * @param _beneficiary the beneficiary to redeem.\n     * @param _auctionId the auction id to redeem from.\n     * @return uint256 reputation rewarded\n     */\n    function redeem(address _beneficiary, uint256 _auctionId) public returns(uint256 reputation) {\n        // solhint-disable-next-line not-rely-on-time\n        require(now > redeemEnableTime, \"now > redeemEnableTime\");\n        Auction storage auction = auctions[_auctionId];\n        uint256 bid = auction.bids[_beneficiary];\n        require(bid > 0, \"bidding amount should be > 0\");\n        auction.bids[_beneficiary] = 0;\n        uint256 repRelation = bid.mul(auctionReputationReward);\n        reputation = repRelation.div(auction.totalBid);\n        // check that the reputation is sum zero\n        reputationRewardLeft = reputationRewardLeft.sub(reputation);\n        require(\n        ControllerInterface(avatar.owner())\n        .mintReputation(reputation, _beneficiary, address(avatar)), \"mint reputation should succeed\");\n        emit Redeem(_auctionId, _beneficiary, reputation);\n    }\n\n    /**\n     * @dev bid function\n     * @param _amount the amount to bid with\n     * @param _auctionId the auction id to bid at .\n     * @return auctionId\n     */\n    function bid(uint256 _amount, uint256 _auctionId, bytes32 _agreementHash)\n    public\n    onlyAgree(_agreementHash)\n    returns(uint256 auctionId)\n    {\n        require(_amount > 0, \"bidding amount should be > 0\");\n        // solhint-disable-next-line not-rely-on-time\n        require(now < auctionsEndTime, \"bidding should be within the allowed bidding period\");\n        // solhint-disable-next-line not-rely-on-time\n        require(now >= auctionsStartTime, \"bidding is enable only after bidding auctionsStartTime\");\n        address(token).safeTransferFrom(msg.sender, address(this), _amount);\n        // solhint-disable-next-line not-rely-on-time\n        auctionId = (now - auctionsStartTime) / auctionPeriod;\n        require(auctionId == _auctionId, \"auction is not active\");\n        Auction storage auction = auctions[auctionId];\n        auction.totalBid = auction.totalBid.add(_amount);\n        auction.bids[msg.sender] = auction.bids[msg.sender].add(_amount);\n        emit Bid(msg.sender, auctionId, _amount);\n    }\n\n    /**\n     * @dev getBid get bid for specific bidder and _auctionId\n     * @param _bidder the bidder\n     * @param _auctionId auction id\n     * @return uint\n     */\n    function getBid(address _bidder, uint256 _auctionId) public view returns(uint256) {\n        return auctions[_auctionId].bids[_bidder];\n    }\n\n    /**\n     * @dev transferToWallet transfer the tokens to the wallet.\n     *      can be called only after auctionsEndTime\n     */\n    function transferToWallet() public {\n      // solhint-disable-next-line not-rely-on-time\n        require(now > auctionsEndTime, \"now > auctionsEndTime\");\n        uint256 tokenBalance = token.balanceOf(address(this));\n        address(token).safeTransfer(wallet, tokenBalance);\n    }\n\n}\n\n// File: contracts/schemes/bootstrap/DxGenAuction4Rep.sol\n\npragma solidity ^0.5.4;\n\n\n/**\n * @title Scheme for conducting ERC20 Tokens auctions for reputation\n */\ncontract DxGenAuction4Rep is Auction4Reputation {\n    constructor() public {}\n}\n",
  "sourcePath": "/home/blackjak/Projects/DXdao/dxdao-contracts/contracts/schemes/DxGenAuction4Rep.sol",
  "compiler": {
    "name": "solc",
    "version": "0.5.17+commit.d19bba13.Emscripten.clang"
  },
  "schemaVersion": "3.1.0",
  "updatedAt": "2020-05-20T19:09:10.839Z",
  "devdoc": {
    "methods": {
      "bid(uint256,uint256,bytes32)": {
        "details": "bid function",
        "params": {
          "_amount": "the amount to bid with",
          "_auctionId": "the auction id to bid at ."
        },
        "return": "auctionId"
      },
      "getAgreementHash()": {
        "details": "getAgreementHash",
        "return": "bytes32 agreementHash"
      },
      "getBid(address,uint256)": {
        "details": "getBid get bid for specific bidder and _auctionId",
        "params": {
          "_auctionId": "auction id",
          "_bidder": "the bidder"
        },
        "return": "uint"
      },
      "initialize(address,uint256,uint256,uint256,uint256,uint256,address,address,bytes32)": {
        "details": "initialize",
        "params": {
          "_agreementHash": "is a hash of agreement required to be added to the TX by participants",
          "_auctionPeriod": "auctions period time.       auctionsEndTime is set to _auctionsStartTime + _auctionPeriod*_numberOfAuctions       bidding is disable after auctionsEndTime.",
          "_auctionReputationReward": "the reputation reward per auction this contract will reward       for the token locking",
          "_auctionsStartTime": "auctions period start time",
          "_avatar": "the avatar to mint reputation from",
          "_numberOfAuctions": "number of auctions.",
          "_redeemEnableTime": "redeem enable time .       redeem reputation can be done after this time.",
          "_token": "the bidding token",
          "_wallet": "the address of the wallet the token will be transfer to.        Please note that _wallet address should be a trusted account.        Normally this address should be set as the DAO's avatar address."
        }
      },
      "redeem(address,uint256)": {
        "details": "redeem reputation function",
        "params": {
          "_auctionId": "the auction id to redeem from.",
          "_beneficiary": "the beneficiary to redeem."
        },
        "return": "uint256 reputation rewarded"
      },
      "transferToWallet()": {
        "details": "transferToWallet transfer the tokens to the wallet.     can be called only after auctionsEndTime"
      }
    },
    "title": "A scheme for conduct ERC20 Tokens auction for reputation"
  },
  "userdoc": {
    "methods": {}
  }
}