{
  "contractName": "ExternalLocking4Reputation",
  "abi": [
    {
      "anonymous": false,
      "inputs": [
        {
          "indexed": true,
          "internalType": "address",
          "name": "_locker",
          "type": "address"
        },
        {
          "indexed": true,
          "internalType": "bytes32",
          "name": "_lockingId",
          "type": "bytes32"
        },
        {
          "indexed": false,
          "internalType": "uint256",
          "name": "_amount",
          "type": "uint256"
        },
        {
          "indexed": false,
          "internalType": "uint256",
          "name": "_period",
          "type": "uint256"
        }
      ],
      "name": "Lock",
      "type": "event"
    },
    {
      "anonymous": false,
      "inputs": [
        {
          "indexed": true,
          "internalType": "address",
          "name": "_beneficiary",
          "type": "address"
        },
        {
          "indexed": false,
          "internalType": "uint256",
          "name": "_amount",
          "type": "uint256"
        }
      ],
      "name": "Redeem",
      "type": "event"
    },
    {
      "anonymous": false,
      "inputs": [
        {
          "indexed": true,
          "internalType": "address",
          "name": "_beneficiary",
          "type": "address"
        }
      ],
      "name": "Register",
      "type": "event"
    },
    {
      "anonymous": false,
      "inputs": [
        {
          "indexed": true,
          "internalType": "bytes32",
          "name": "_lockingId",
          "type": "bytes32"
        },
        {
          "indexed": true,
          "internalType": "address",
          "name": "_beneficiary",
          "type": "address"
        },
        {
          "indexed": false,
          "internalType": "uint256",
          "name": "_amount",
          "type": "uint256"
        }
      ],
      "name": "Release",
      "type": "event"
    },
    {
      "constant": true,
      "inputs": [],
      "name": "avatar",
      "outputs": [
        {
          "internalType": "contract Avatar",
          "name": "",
          "type": "address"
        }
      ],
      "payable": false,
      "stateMutability": "view",
      "type": "function"
    },
    {
      "constant": true,
      "inputs": [
        {
          "internalType": "address",
          "name": "",
          "type": "address"
        }
      ],
      "name": "externalLockers",
      "outputs": [
        {
          "internalType": "bool",
          "name": "",
          "type": "bool"
        }
      ],
      "payable": false,
      "stateMutability": "view",
      "type": "function"
    },
    {
      "constant": true,
      "inputs": [],
      "name": "externalLockingContract",
      "outputs": [
        {
          "internalType": "address",
          "name": "",
          "type": "address"
        }
      ],
      "payable": false,
      "stateMutability": "view",
      "type": "function"
    },
    {
      "constant": true,
      "inputs": [],
      "name": "getAgreementHash",
      "outputs": [
        {
          "internalType": "bytes32",
          "name": "",
          "type": "bytes32"
        }
      ],
      "payable": false,
      "stateMutability": "view",
      "type": "function"
    },
    {
      "constant": true,
      "inputs": [],
      "name": "getBalanceFuncSignature",
      "outputs": [
        {
          "internalType": "string",
          "name": "",
          "type": "string"
        }
      ],
      "payable": false,
      "stateMutability": "view",
      "type": "function"
    },
    {
      "constant": true,
      "inputs": [
        {
          "internalType": "address",
          "name": "",
          "type": "address"
        },
        {
          "internalType": "bytes32",
          "name": "",
          "type": "bytes32"
        }
      ],
      "name": "lockers",
      "outputs": [
        {
          "internalType": "uint256",
          "name": "amount",
          "type": "uint256"
        },
        {
          "internalType": "uint256",
          "name": "releaseTime",
          "type": "uint256"
        }
      ],
      "payable": false,
      "stateMutability": "view",
      "type": "function"
    },
    {
      "constant": true,
      "inputs": [],
      "name": "lockingEndTime",
      "outputs": [
        {
          "internalType": "uint256",
          "name": "",
          "type": "uint256"
        }
      ],
      "payable": false,
      "stateMutability": "view",
      "type": "function"
    },
    {
      "constant": true,
      "inputs": [],
      "name": "lockingStartTime",
      "outputs": [
        {
          "internalType": "uint256",
          "name": "",
          "type": "uint256"
        }
      ],
      "payable": false,
      "stateMutability": "view",
      "type": "function"
    },
    {
      "constant": true,
      "inputs": [],
      "name": "lockingsCounter",
      "outputs": [
        {
          "internalType": "uint256",
          "name": "",
          "type": "uint256"
        }
      ],
      "payable": false,
      "stateMutability": "view",
      "type": "function"
    },
    {
      "constant": true,
      "inputs": [],
      "name": "maxLockingPeriod",
      "outputs": [
        {
          "internalType": "uint256",
          "name": "",
          "type": "uint256"
        }
      ],
      "payable": false,
      "stateMutability": "view",
      "type": "function"
    },
    {
      "constant": false,
      "inputs": [
        {
          "internalType": "address",
          "name": "_beneficiary",
          "type": "address"
        }
      ],
      "name": "redeem",
      "outputs": [
        {
          "internalType": "uint256",
          "name": "reputation",
          "type": "uint256"
        }
      ],
      "payable": false,
      "stateMutability": "nonpayable",
      "type": "function"
    },
    {
      "constant": true,
      "inputs": [],
      "name": "redeemEnableTime",
      "outputs": [
        {
          "internalType": "uint256",
          "name": "",
          "type": "uint256"
        }
      ],
      "payable": false,
      "stateMutability": "view",
      "type": "function"
    },
    {
      "constant": true,
      "inputs": [
        {
          "internalType": "address",
          "name": "",
          "type": "address"
        }
      ],
      "name": "registrar",
      "outputs": [
        {
          "internalType": "bool",
          "name": "",
          "type": "bool"
        }
      ],
      "payable": false,
      "stateMutability": "view",
      "type": "function"
    },
    {
      "constant": true,
      "inputs": [],
      "name": "reputationReward",
      "outputs": [
        {
          "internalType": "uint256",
          "name": "",
          "type": "uint256"
        }
      ],
      "payable": false,
      "stateMutability": "view",
      "type": "function"
    },
    {
      "constant": true,
      "inputs": [],
      "name": "reputationRewardLeft",
      "outputs": [
        {
          "internalType": "uint256",
          "name": "",
          "type": "uint256"
        }
      ],
      "payable": false,
      "stateMutability": "view",
      "type": "function"
    },
    {
      "constant": true,
      "inputs": [
        {
          "internalType": "address",
          "name": "",
          "type": "address"
        }
      ],
      "name": "scores",
      "outputs": [
        {
          "internalType": "uint256",
          "name": "",
          "type": "uint256"
        }
      ],
      "payable": false,
      "stateMutability": "view",
      "type": "function"
    },
    {
      "constant": true,
      "inputs": [],
      "name": "totalLocked",
      "outputs": [
        {
          "internalType": "uint256",
          "name": "",
          "type": "uint256"
        }
      ],
      "payable": false,
      "stateMutability": "view",
      "type": "function"
    },
    {
      "constant": true,
      "inputs": [],
      "name": "totalLockedLeft",
      "outputs": [
        {
          "internalType": "uint256",
          "name": "",
          "type": "uint256"
        }
      ],
      "payable": false,
      "stateMutability": "view",
      "type": "function"
    },
    {
      "constant": true,
      "inputs": [],
      "name": "totalScore",
      "outputs": [
        {
          "internalType": "uint256",
          "name": "",
          "type": "uint256"
        }
      ],
      "payable": false,
      "stateMutability": "view",
      "type": "function"
    },
    {
      "constant": false,
      "inputs": [
        {
          "internalType": "contract Avatar",
          "name": "_avatar",
          "type": "address"
        },
        {
          "internalType": "uint256",
          "name": "_reputationReward",
          "type": "uint256"
        },
        {
          "internalType": "uint256",
          "name": "_claimingStartTime",
          "type": "uint256"
        },
        {
          "internalType": "uint256",
          "name": "_claimingEndTime",
          "type": "uint256"
        },
        {
          "internalType": "uint256",
          "name": "_redeemEnableTime",
          "type": "uint256"
        },
        {
          "internalType": "address",
          "name": "_externalLockingContract",
          "type": "address"
        },
        {
          "internalType": "string",
          "name": "_getBalanceFuncSignature",
          "type": "string"
        },
        {
          "internalType": "bytes32",
          "name": "_agreementHash",
          "type": "bytes32"
        }
      ],
      "name": "initialize",
      "outputs": [],
      "payable": false,
      "stateMutability": "nonpayable",
      "type": "function"
    },
    {
      "constant": false,
      "inputs": [
        {
          "internalType": "address",
          "name": "_beneficiary",
          "type": "address"
        },
        {
          "internalType": "bytes32",
          "name": "_agreementHash",
          "type": "bytes32"
        }
      ],
      "name": "claim",
      "outputs": [
        {
          "internalType": "bytes32",
          "name": "",
          "type": "bytes32"
        }
      ],
      "payable": false,
      "stateMutability": "nonpayable",
      "type": "function"
    },
    {
      "constant": false,
      "inputs": [
        {
          "internalType": "bytes32",
          "name": "_agreementHash",
          "type": "bytes32"
        }
      ],
      "name": "register",
      "outputs": [],
      "payable": false,
      "stateMutability": "nonpayable",
      "type": "function"
    }
  ],
  "bytecode": "0x608060405234801561001057600080fd5b506114d6806100206000396000f3fe608060405234801561001057600080fd5b50600436106101425760003560e01c8063bf0df445116100b8578063dd9d2deb1161007c578063dd9d2deb14610292578063e1fa8e84146102cc578063e397cb9e146102eb578063ed1ff6d814610311578063f0167cfa14610319578063f27a55051461039657610142565b8063bf0df44514610246578063c006719f1461024e578063c3201add14610256578063c348a24b1461025e578063c8622c241461026657610142565b806376dd110f1161010a57806376dd110f1461019d5780637f33ccac146101c357806383805742146101cb57806395a2251f14610210578063a8c3301714610236578063afe0e33c1461023e57610142565b80633d1678f41461014757806355bfec881461016157806356891412146101695780635aef7de614610171578063696da92114610195575b600080fd5b61014f610438565b60408051918252519081900360200190f35b61014f61043e565b61014f610444565b61017961044a565b604080516001600160a01b039092168252519081900360200190f35b61014f610459565b61014f600480360360208110156101b357600080fd5b50356001600160a01b0316610460565b610179610472565b6101f7600480360360408110156101e157600080fd5b506001600160a01b038135169060200135610481565b6040805192835260208301919091528051918290030190f35b61014f6004803603602081101561022657600080fd5b50356001600160a01b03166104a5565b61014f61074d565b61014f610753565b61014f610759565b61014f61075f565b61014f610765565b61014f61076b565b61014f6004803603604081101561027c57600080fd5b506001600160a01b038135169060200135610771565b6102b8600480360360208110156102a857600080fd5b50356001600160a01b0316610a87565b604080519115158252519081900360200190f35b6102e9600480360360208110156102e257600080fd5b5035610a9c565b005b6102b86004803603602081101561030157600080fd5b50356001600160a01b0316610b21565b61014f610b36565b610321610b3c565b6040805160208082528351818301528351919283929083019185019080838360005b8381101561035b578181015183820152602001610343565b50505050905090810190601f1680156103885780820380516001836020036101000a031916815260200191505b509250505060405180910390f35b6102e960048036036101008110156103ad57600080fd5b6001600160a01b03823581169260208101359260408201359260608301359260808101359260a08201359092169181019060e0810160c08201356401000000008111156103f957600080fd5b82018360208201111561040b57600080fd5b8035906020019184600183028401116401000000008311171561042d57600080fd5b919350915035610bca565b600d5481565b600c5481565b60045481565b6001546001600160a01b031681565b6000545b90565b60036020526000908152604090205481565b600e546001600160a01b031681565b60026020908152600092835260408084209091529082529020805460019091015482565b6000600d5442116104f6576040805162461bcd60e51b81526020600482015260166024820152756e6f77203e2072656465656d456e61626c6554696d6560501b604482015290519081900360640190fd5b6001600160a01b038216600090815260036020526040902054610556576040805162461bcd60e51b8152602060048201526013602482015272073636f72652073686f756c64206265203e203606c1b604482015290519081900360640190fd5b6001600160a01b038216600090815260036020526040812080549082905560085490919061058b90839063ffffffff610c4b16565b90506105a260065482610c7990919063ffffffff16565b6009549093506105b8908463ffffffff610c9b16565b60095560015460408051638da5cb5b60e01b815290516001600160a01b0390921691638da5cb5b91600480820192602092909190829003018186803b15801561060057600080fd5b505afa158015610614573d6000803e3d6000fd5b505050506040513d602081101561062a57600080fd5b50516001546040805163757cca5960e11b8152600481018790526001600160a01b03888116602483015292831660448201529051919092169163eaf994b29160648083019260209291908290030181600087803b15801561068a57600080fd5b505af115801561069e573d6000803e3d6000fd5b505050506040513d60208110156106b457600080fd5b5051610707576040805162461bcd60e51b815260206004820152601e60248201527f6d696e742072657075746174696f6e2073686f756c6420737563636565640000604482015290519081900360640190fd5b6040805184815290516001600160a01b038616917f222838db2794d11532d940e8dec38ae307ed0b63cd97c233322e221f998767a6919081900360200190a25050919050565b600a5481565b60095481565b600b5481565b60065481565b60075481565b60055481565b6001546000906001600160a01b03166107d1576040805162461bcd60e51b815260206004820152601760248201527f73686f756c6420696e697469616c697a65206669727374000000000000000000604482015290519081900360640190fd5b60006001600160a01b0384166107e8575033610858565b6001600160a01b03841660009081526011602052604090205460ff16610855576040805162461bcd60e51b815260206004820152601e60248201527f62656e65666963696172792073686f756c642062652072656769737465720000604482015290519081900360640190fd5b50825b6001600160a01b03811660009081526010602052604090205460ff16156108b05760405162461bcd60e51b81526004018080602001828103825260368152602001806114106036913960400191505060405180910390fd5b6001600160a01b03808216600081815260106020526040808220805460ff19166001908117909155600e5482516024808201969096528351808203909601865260440192839052600f80549496606096921694919390929091829184916002600019928216156101000292909201160480156109635780601f10610941576101008083540402835291820191610963565b820191906000526020600020905b81548152906001019060200180831161094f575b505060408051918290039091206020850180516001600160e01b03166001600160e01b0319909216919091178152905184519093508392508083835b602083106109be5780518252601f19909201916020918201910161099f565b6001836020036101000a0380198251168184511680821785525050505050509050019150506000604051808303816000865af19150503d8060008114610a20576040519150601f19603f3d011682016040523d82523d6000602084013e610a25565b606091505b509150915081610a665760405162461bcd60e51b81526004018080602001828103825260288152602001806113026028913960400191505060405180910390fd5b6020810151610a7a8160018681808b610cb0565b9450505050505b92915050565b60106020526000908152604090205460ff1681565b806000548114610add5760405162461bcd60e51b81526004018080602001828103825260288152602001806113bc6028913960400191505060405180910390fd5b33600081815260116020526040808220805460ff19166001179055517feeda149c76076b34d4b9d8896c2f7efc0d33d1c7b53ea3c5db490d64613f603a9190a25050565b60116020526000908152604090205460ff1681565b60085481565b600f805460408051602060026001851615610100026000190190941693909304601f81018490048402820184019092528181529291830182828015610bc25780601f10610b9757610100808354040283529160200191610bc2565b820191906000526020600020905b815481529060010190602001808311610ba557829003601f168201915b505050505081565b868611610c085760405162461bcd60e51b815260040180806020018281038252603a815260200180611468603a913960400191505060405180910390fd5b600e80546001600160a01b0319166001600160a01b038616179055610c2f600f8484611269565b50610c408989898989600187611084565b505050505050505050565b600082610c5a57506000610a81565b82820282848281610c6757fe5b0414610c7257600080fd5b9392505050565b6000808211610c8757600080fd5b6000828481610c9257fe5b04949350505050565b600082821115610caa57600080fd5b50900390565b6000816000548114610cf35760405162461bcd60e51b81526004018080602001828103825260288152602001806113bc6028913960400191505060405180910390fd5b60008811610d48576040805162461bcd60e51b815260206004820152601c60248201527f6c6f636b696e6720616d6f756e742073686f756c64206265203e203000000000604482015290519081900360640190fd5b600b54871115610d895760405162461bcd60e51b815260040180806020018281038252602c8152602001806113e4602c913960400191505060405180910390fd5b60008711610dde576040805162461bcd60e51b815260206004820152601c60248201527f6c6f636b696e6720706572696f642073686f756c64206265203e203000000000604482015290519081900360640190fd5b600a54421115610e1f5760405162461bcd60e51b81526004018080602001828103825260308152602001806113526030913960400191505060405180910390fd5b600c54421015610e605760405162461bcd60e51b815260040180806020018281038252602881526020018061132a6028913960400191505060405180910390fd5b600754604080513060601b602080830191909152603480830185905283518084039091018152605490920190925280519101209250610ea690600163ffffffff6111fd16565b6007556001600160a01b038616600090815260026020908152604080832085845290915290208881554288016001820155600454610eea908a63ffffffff6111fd16565b600455600554610f00908a63ffffffff6111fd16565b6005556000610f3586610f2989610f1d8d8f63ffffffff610c4b16565b9063ffffffff610c4b16565b9063ffffffff610c7916565b905060008111610f80576040805162461bcd60e51b8152602060048201526011602482015270073636f7265206d757374206d65203e203607c1b604482015290519081900360640190fd5b6001600160a01b038816600090815260036020526040902054610fa9908263ffffffff6111fd16565b6001600160a01b03891660009081526003602052604090208190556008549081810281610fd257fe5b0414611019576040805162461bcd60e51b81526020600482015260116024820152700e6c6dee4ca40d2e640e8dede40d0d2ced607b1b604482015290519081900360640190fd5b60065461102c908263ffffffff6111fd16565b600655604080518b8152602081018b9052815186926001600160a01b038c16927fd173f98f4a2080eab40a0bff4d9a575753270cb2401c74efdec1feb0ba31b426929081900390910190a35050509695505050505050565b6001546001600160a01b0316156110e2576040805162461bcd60e51b815260206004820152601b60248201527f63616e2062652063616c6c6564206f6e6c79206f6e652074696d650000000000604482015290519081900360640190fd5b6001600160a01b038716611135576040805162461bcd60e51b81526020600482015260156024820152746176617461722063616e6e6f74206265207a65726f60581b604482015290519081900360640190fd5b8484116111735760405162461bcd60e51b815260040180806020018281038252603a815260200180611382603a913960400191505060405180910390fd5b838310156111b25760405162461bcd60e51b81526004018080602001828103825260228152602001806114466022913960400191505060405180910390fd5b60088690556009869055600a849055600b829055600180546001600160a01b0319166001600160a01b038916179055600c859055600d8390556111f48161120f565b50505050505050565b600082820183811015610c7257600080fd5b60005415611264576040805162461bcd60e51b815260206004820152601b60248201527f43616e206e6f74207365742061677265656d656e742074776963650000000000604482015290519081900360640190fd5b600055565b828054600181600116156101000203166002900490600052602060002090601f016020900481019282601f106112aa5782800160ff198235161785556112d7565b828001600101855582156112d7579182015b828111156112d75782358255916020019190600101906112bc565b506112e39291506112e7565b5090565b61045d91905b808211156112e357600081556001016112ed56fe63616c6c20746f2065787465726e616c20636f6e74726163742073686f756c6420737563636565646c6f636b2073686f756c64207374617274206166746572206c6f636b696e67537461727454696d656c6f636b2073686f756c642062652077697468696e2074686520616c6c6f776564206c6f636b696e6720706572696f646c6f636b696e6720656e642074696d652073686f756c642062652067726561746572207468616e206c6f636b696e672073746172742074696d6553656e646572206d7573742073656e64207468652072696768742061677265656d656e74486173686c6f636b696e6720706572696f642073686f756c64206265203c3d206d61784c6f636b696e67506572696f64636c61696d696e6720747769636520666f72207468652073616d652062656e6566696369617279206973206e6f7420616c6c6f77656472656465656d456e61626c6554696d65203e3d206c6f636b696e67456e6454696d655f636c61696d696e67456e6454696d652073686f756c642062652067726561746572207468616e205f636c61696d696e67537461727454696d65a265627a7a723158201b0fae77d54e1cc7e26da46fe095c33ec86493f3f0753dea264052419aa4387864736f6c63430005110032",
  "source": "/**\n *Submitted for verification at Etherscan.io on 2019-05-06\n*/\n\n// File: openzeppelin-solidity/contracts/ownership/Ownable.sol\n\npragma solidity ^0.5.0;\n\n/**\n * @title Ownable\n * @dev The Ownable contract has an owner address, and provides basic authorization control\n * functions, this simplifies the implementation of \"user permissions\".\n */\ncontract Ownable {\n    address private _owner;\n\n    event OwnershipTransferred(address indexed previousOwner, address indexed newOwner);\n\n    /**\n     * @dev The Ownable constructor sets the original `owner` of the contract to the sender\n     * account.\n     */\n    constructor () internal {\n        _owner = msg.sender;\n        emit OwnershipTransferred(address(0), _owner);\n    }\n\n    /**\n     * @return the address of the owner.\n     */\n    function owner() public view returns (address) {\n        return _owner;\n    }\n\n    /**\n     * @dev Throws if called by any account other than the owner.\n     */\n    modifier onlyOwner() {\n        require(isOwner());\n        _;\n    }\n\n    /**\n     * @return true if `msg.sender` is the owner of the contract.\n     */\n    function isOwner() public view returns (bool) {\n        return msg.sender == _owner;\n    }\n\n    /**\n     * @dev Allows the current owner to relinquish control of the contract.\n     * @notice Renouncing to ownership will leave the contract without an owner.\n     * It will not be possible to call the functions with the `onlyOwner`\n     * modifier anymore.\n     */\n    function renounceOwnership() public onlyOwner {\n        emit OwnershipTransferred(_owner, address(0));\n        _owner = address(0);\n    }\n\n    /**\n     * @dev Allows the current owner to transfer control of the contract to a newOwner.\n     * @param newOwner The address to transfer ownership to.\n     */\n    function transferOwnership(address newOwner) public onlyOwner {\n        _transferOwnership(newOwner);\n    }\n\n    /**\n     * @dev Transfers control of the contract to a newOwner.\n     * @param newOwner The address to transfer ownership to.\n     */\n    function _transferOwnership(address newOwner) internal {\n        require(newOwner != address(0));\n        emit OwnershipTransferred(_owner, newOwner);\n        _owner = newOwner;\n    }\n}\n\n// File: @daostack/infra/contracts/Reputation.sol\n\npragma solidity ^0.5.4;\n\n\n\n/**\n * @title Reputation system\n * @dev A DAO has Reputation System which allows peers to rate other peers in order to build trust .\n * A reputation is use to assign influence measure to a DAO'S peers.\n * Reputation is similar to regular tokens but with one crucial difference: It is non-transferable.\n * The Reputation contract maintain a map of address to reputation value.\n * It provides an onlyOwner functions to mint and burn reputation _to (or _from) a specific address.\n */\n\ncontract Reputation is Ownable {\n\n    uint8 public decimals = 18;             //Number of decimals of the smallest unit\n    // Event indicating minting of reputation to an address.\n    event Mint(address indexed _to, uint256 _amount);\n    // Event indicating burning of reputation for an address.\n    event Burn(address indexed _from, uint256 _amount);\n\n      /// @dev `Checkpoint` is the structure that attaches a block number to a\n      ///  given value, the block number attached is the one that last changed the\n      ///  value\n    struct Checkpoint {\n\n    // `fromBlock` is the block number that the value was generated from\n        uint128 fromBlock;\n\n          // `value` is the amount of reputation at a specific block number\n        uint128 value;\n    }\n\n      // `balances` is the map that tracks the balance of each address, in this\n      //  contract when the balance changes the block number that the change\n      //  occurred is also included in the map\n    mapping (address => Checkpoint[]) balances;\n\n      // Tracks the history of the `totalSupply` of the reputation\n    Checkpoint[] totalSupplyHistory;\n\n    /// @notice Constructor to create a Reputation\n    constructor(\n    ) public\n    {\n    }\n\n    /// @dev This function makes it easy to get the total number of reputation\n    /// @return The total number of reputation\n    function totalSupply() public view returns (uint256) {\n        return totalSupplyAt(block.number);\n    }\n\n  ////////////////\n  // Query balance and totalSupply in History\n  ////////////////\n    /**\n    * @dev return the reputation amount of a given owner\n    * @param _owner an address of the owner which we want to get his reputation\n    */\n    function balanceOf(address _owner) public view returns (uint256 balance) {\n        return balanceOfAt(_owner, block.number);\n    }\n\n      /// @dev Queries the balance of `_owner` at a specific `_blockNumber`\n      /// @param _owner The address from which the balance will be retrieved\n      /// @param _blockNumber The block number when the balance is queried\n      /// @return The balance at `_blockNumber`\n    function balanceOfAt(address _owner, uint256 _blockNumber)\n    public view returns (uint256)\n    {\n        if ((balances[_owner].length == 0) || (balances[_owner][0].fromBlock > _blockNumber)) {\n            return 0;\n          // This will return the expected balance during normal situations\n        } else {\n            return getValueAt(balances[_owner], _blockNumber);\n        }\n    }\n\n      /// @notice Total amount of reputation at a specific `_blockNumber`.\n      /// @param _blockNumber The block number when the totalSupply is queried\n      /// @return The total amount of reputation at `_blockNumber`\n    function totalSupplyAt(uint256 _blockNumber) public view returns(uint256) {\n        if ((totalSupplyHistory.length == 0) || (totalSupplyHistory[0].fromBlock > _blockNumber)) {\n            return 0;\n          // This will return the expected totalSupply during normal situations\n        } else {\n            return getValueAt(totalSupplyHistory, _blockNumber);\n        }\n    }\n\n      /// @notice Generates `_amount` reputation that are assigned to `_owner`\n      /// @param _user The address that will be assigned the new reputation\n      /// @param _amount The quantity of reputation generated\n      /// @return True if the reputation are generated correctly\n    function mint(address _user, uint256 _amount) public onlyOwner returns (bool) {\n        uint256 curTotalSupply = totalSupply();\n        require(curTotalSupply + _amount >= curTotalSupply); // Check for overflow\n        uint256 previousBalanceTo = balanceOf(_user);\n        require(previousBalanceTo + _amount >= previousBalanceTo); // Check for overflow\n        updateValueAtNow(totalSupplyHistory, curTotalSupply + _amount);\n        updateValueAtNow(balances[_user], previousBalanceTo + _amount);\n        emit Mint(_user, _amount);\n        return true;\n    }\n\n      /// @notice Burns `_amount` reputation from `_owner`\n      /// @param _user The address that will lose the reputation\n      /// @param _amount The quantity of reputation to burn\n      /// @return True if the reputation are burned correctly\n    function burn(address _user, uint256 _amount) public onlyOwner returns (bool) {\n        uint256 curTotalSupply = totalSupply();\n        uint256 amountBurned = _amount;\n        uint256 previousBalanceFrom = balanceOf(_user);\n        if (previousBalanceFrom < amountBurned) {\n            amountBurned = previousBalanceFrom;\n        }\n        updateValueAtNow(totalSupplyHistory, curTotalSupply - amountBurned);\n        updateValueAtNow(balances[_user], previousBalanceFrom - amountBurned);\n        emit Burn(_user, amountBurned);\n        return true;\n    }\n\n  ////////////////\n  // Internal helper functions to query and set a value in a snapshot array\n  ////////////////\n\n      /// @dev `getValueAt` retrieves the number of reputation at a given block number\n      /// @param checkpoints The history of values being queried\n      /// @param _block The block number to retrieve the value at\n      /// @return The number of reputation being queried\n    function getValueAt(Checkpoint[] storage checkpoints, uint256 _block) internal view returns (uint256) {\n        if (checkpoints.length == 0) {\n            return 0;\n        }\n\n          // Shortcut for the actual value\n        if (_block >= checkpoints[checkpoints.length-1].fromBlock) {\n            return checkpoints[checkpoints.length-1].value;\n        }\n        if (_block < checkpoints[0].fromBlock) {\n            return 0;\n        }\n\n          // Binary search of the value in the array\n        uint256 min = 0;\n        uint256 max = checkpoints.length-1;\n        while (max > min) {\n            uint256 mid = (max + min + 1) / 2;\n            if (checkpoints[mid].fromBlock<=_block) {\n                min = mid;\n            } else {\n                max = mid-1;\n            }\n        }\n        return checkpoints[min].value;\n    }\n\n      /// @dev `updateValueAtNow` used to update the `balances` map and the\n      ///  `totalSupplyHistory`\n      /// @param checkpoints The history of data being updated\n      /// @param _value The new number of reputation\n    function updateValueAtNow(Checkpoint[] storage checkpoints, uint256 _value) internal {\n        require(uint128(_value) == _value); //check value is in the 128 bits bounderies\n        if ((checkpoints.length == 0) || (checkpoints[checkpoints.length - 1].fromBlock < block.number)) {\n            Checkpoint storage newCheckPoint = checkpoints[checkpoints.length++];\n            newCheckPoint.fromBlock = uint128(block.number);\n            newCheckPoint.value = uint128(_value);\n        } else {\n            Checkpoint storage oldCheckPoint = checkpoints[checkpoints.length-1];\n            oldCheckPoint.value = uint128(_value);\n        }\n    }\n}\n\n// File: openzeppelin-solidity/contracts/token/ERC20/IERC20.sol\n\npragma solidity ^0.5.0;\n\n/**\n * @title ERC20 interface\n * @dev see https://github.com/ethereum/EIPs/issues/20\n */\ninterface IERC20 {\n    function transfer(address to, uint256 value) external returns (bool);\n\n    function approve(address spender, uint256 value) external returns (bool);\n\n    function transferFrom(address from, address to, uint256 value) external returns (bool);\n\n    function totalSupply() external view returns (uint256);\n\n    function balanceOf(address who) external view returns (uint256);\n\n    function allowance(address owner, address spender) external view returns (uint256);\n\n    event Transfer(address indexed from, address indexed to, uint256 value);\n\n    event Approval(address indexed owner, address indexed spender, uint256 value);\n}\n\n// File: openzeppelin-solidity/contracts/math/SafeMath.sol\n\npragma solidity ^0.5.0;\n\n/**\n * @title SafeMath\n * @dev Unsigned math operations with safety checks that revert on error\n */\nlibrary SafeMath {\n    /**\n    * @dev Multiplies two unsigned integers, reverts on overflow.\n    */\n    function mul(uint256 a, uint256 b) internal pure returns (uint256) {\n        // Gas optimization: this is cheaper than requiring 'a' not being zero, but the\n        // benefit is lost if 'b' is also tested.\n        // See: https://github.com/OpenZeppelin/openzeppelin-solidity/pull/522\n        if (a == 0) {\n            return 0;\n        }\n\n        uint256 c = a * b;\n        require(c / a == b);\n\n        return c;\n    }\n\n    /**\n    * @dev Integer division of two unsigned integers truncating the quotient, reverts on division by zero.\n    */\n    function div(uint256 a, uint256 b) internal pure returns (uint256) {\n        // Solidity only automatically asserts when dividing by 0\n        require(b > 0);\n        uint256 c = a / b;\n        // assert(a == b * c + a % b); // There is no case in which this doesn't hold\n\n        return c;\n    }\n\n    /**\n    * @dev Subtracts two unsigned integers, reverts on overflow (i.e. if subtrahend is greater than minuend).\n    */\n    function sub(uint256 a, uint256 b) internal pure returns (uint256) {\n        require(b <= a);\n        uint256 c = a - b;\n\n        return c;\n    }\n\n    /**\n    * @dev Adds two unsigned integers, reverts on overflow.\n    */\n    function add(uint256 a, uint256 b) internal pure returns (uint256) {\n        uint256 c = a + b;\n        require(c >= a);\n\n        return c;\n    }\n\n    /**\n    * @dev Divides two unsigned integers and returns the remainder (unsigned integer modulo),\n    * reverts when dividing by zero.\n    */\n    function mod(uint256 a, uint256 b) internal pure returns (uint256) {\n        require(b != 0);\n        return a % b;\n    }\n}\n\n// File: openzeppelin-solidity/contracts/token/ERC20/ERC20.sol\n\npragma solidity ^0.5.0;\n\n\n\n/**\n * @title Standard ERC20 token\n *\n * @dev Implementation of the basic standard token.\n * https://github.com/ethereum/EIPs/blob/master/EIPS/eip-20.md\n * Originally based on code by FirstBlood:\n * https://github.com/Firstbloodio/token/blob/master/smart_contract/FirstBloodToken.sol\n *\n * This implementation emits additional Approval events, allowing applications to reconstruct the allowance status for\n * all accounts just by listening to said events. Note that this isn't required by the specification, and other\n * compliant implementations may not do it.\n */\ncontract ERC20 is IERC20 {\n    using SafeMath for uint256;\n\n    mapping (address => uint256) private _balances;\n\n    mapping (address => mapping (address => uint256)) private _allowed;\n\n    uint256 private _totalSupply;\n\n    /**\n    * @dev Total number of tokens in existence\n    */\n    function totalSupply() public view returns (uint256) {\n        return _totalSupply;\n    }\n\n    /**\n    * @dev Gets the balance of the specified address.\n    * @param owner The address to query the balance of.\n    * @return An uint256 representing the amount owned by the passed address.\n    */\n    function balanceOf(address owner) public view returns (uint256) {\n        return _balances[owner];\n    }\n\n    /**\n     * @dev Function to check the amount of tokens that an owner allowed to a spender.\n     * @param owner address The address which owns the funds.\n     * @param spender address The address which will spend the funds.\n     * @return A uint256 specifying the amount of tokens still available for the spender.\n     */\n    function allowance(address owner, address spender) public view returns (uint256) {\n        return _allowed[owner][spender];\n    }\n\n    /**\n    * @dev Transfer token for a specified address\n    * @param to The address to transfer to.\n    * @param value The amount to be transferred.\n    */\n    function transfer(address to, uint256 value) public returns (bool) {\n        _transfer(msg.sender, to, value);\n        return true;\n    }\n\n    /**\n     * @dev Approve the passed address to spend the specified amount of tokens on behalf of msg.sender.\n     * Beware that changing an allowance with this method brings the risk that someone may use both the old\n     * and the new allowance by unfortunate transaction ordering. One possible solution to mitigate this\n     * race condition is to first reduce the spender's allowance to 0 and set the desired value afterwards:\n     * https://github.com/ethereum/EIPs/issues/20#issuecomment-263524729\n     * @param spender The address which will spend the funds.\n     * @param value The amount of tokens to be spent.\n     */\n    function approve(address spender, uint256 value) public returns (bool) {\n        require(spender != address(0));\n\n        _allowed[msg.sender][spender] = value;\n        emit Approval(msg.sender, spender, value);\n        return true;\n    }\n\n    /**\n     * @dev Transfer tokens from one address to another.\n     * Note that while this function emits an Approval event, this is not required as per the specification,\n     * and other compliant implementations may not emit the event.\n     * @param from address The address which you want to send tokens from\n     * @param to address The address which you want to transfer to\n     * @param value uint256 the amount of tokens to be transferred\n     */\n    function transferFrom(address from, address to, uint256 value) public returns (bool) {\n        _allowed[from][msg.sender] = _allowed[from][msg.sender].sub(value);\n        _transfer(from, to, value);\n        emit Approval(from, msg.sender, _allowed[from][msg.sender]);\n        return true;\n    }\n\n    /**\n     * @dev Increase the amount of tokens that an owner allowed to a spender.\n     * approve should be called when allowed_[_spender] == 0. To increment\n     * allowed value is better to use this function to avoid 2 calls (and wait until\n     * the first transaction is mined)\n     * From MonolithDAO Token.sol\n     * Emits an Approval event.\n     * @param spender The address which will spend the funds.\n     * @param addedValue The amount of tokens to increase the allowance by.\n     */\n    function increaseAllowance(address spender, uint256 addedValue) public returns (bool) {\n        require(spender != address(0));\n\n        _allowed[msg.sender][spender] = _allowed[msg.sender][spender].add(addedValue);\n        emit Approval(msg.sender, spender, _allowed[msg.sender][spender]);\n        return true;\n    }\n\n    /**\n     * @dev Decrease the amount of tokens that an owner allowed to a spender.\n     * approve should be called when allowed_[_spender] == 0. To decrement\n     * allowed value is better to use this function to avoid 2 calls (and wait until\n     * the first transaction is mined)\n     * From MonolithDAO Token.sol\n     * Emits an Approval event.\n     * @param spender The address which will spend the funds.\n     * @param subtractedValue The amount of tokens to decrease the allowance by.\n     */\n    function decreaseAllowance(address spender, uint256 subtractedValue) public returns (bool) {\n        require(spender != address(0));\n\n        _allowed[msg.sender][spender] = _allowed[msg.sender][spender].sub(subtractedValue);\n        emit Approval(msg.sender, spender, _allowed[msg.sender][spender]);\n        return true;\n    }\n\n    /**\n    * @dev Transfer token for a specified addresses\n    * @param from The address to transfer from.\n    * @param to The address to transfer to.\n    * @param value The amount to be transferred.\n    */\n    function _transfer(address from, address to, uint256 value) internal {\n        require(to != address(0));\n\n        _balances[from] = _balances[from].sub(value);\n        _balances[to] = _balances[to].add(value);\n        emit Transfer(from, to, value);\n    }\n\n    /**\n     * @dev Internal function that mints an amount of the token and assigns it to\n     * an account. This encapsulates the modification of balances such that the\n     * proper events are emitted.\n     * @param account The account that will receive the created tokens.\n     * @param value The amount that will be created.\n     */\n    function _mint(address account, uint256 value) internal {\n        require(account != address(0));\n\n        _totalSupply = _totalSupply.add(value);\n        _balances[account] = _balances[account].add(value);\n        emit Transfer(address(0), account, value);\n    }\n\n    /**\n     * @dev Internal function that burns an amount of the token of a given\n     * account.\n     * @param account The account whose tokens will be burnt.\n     * @param value The amount that will be burnt.\n     */\n    function _burn(address account, uint256 value) internal {\n        require(account != address(0));\n\n        _totalSupply = _totalSupply.sub(value);\n        _balances[account] = _balances[account].sub(value);\n        emit Transfer(account, address(0), value);\n    }\n\n    /**\n     * @dev Internal function that burns an amount of the token of a given\n     * account, deducting from the sender's allowance for said account. Uses the\n     * internal burn function.\n     * Emits an Approval event (reflecting the reduced allowance).\n     * @param account The account whose tokens will be burnt.\n     * @param value The amount that will be burnt.\n     */\n    function _burnFrom(address account, uint256 value) internal {\n        _allowed[account][msg.sender] = _allowed[account][msg.sender].sub(value);\n        _burn(account, value);\n        emit Approval(account, msg.sender, _allowed[account][msg.sender]);\n    }\n}\n\n// File: openzeppelin-solidity/contracts/token/ERC20/ERC20Burnable.sol\n\npragma solidity ^0.5.0;\n\n\n/**\n * @title Burnable Token\n * @dev Token that can be irreversibly burned (destroyed).\n */\ncontract ERC20Burnable is ERC20 {\n    /**\n     * @dev Burns a specific amount of tokens.\n     * @param value The amount of token to be burned.\n     */\n    function burn(uint256 value) public {\n        _burn(msg.sender, value);\n    }\n\n    /**\n     * @dev Burns a specific amount of tokens from the target address and decrements allowance\n     * @param from address The address which you want to send tokens from\n     * @param value uint256 The amount of token to be burned\n     */\n    function burnFrom(address from, uint256 value) public {\n        _burnFrom(from, value);\n    }\n}\n\n// File: @daostack/arc/contracts/controller/DAOToken.sol\n\npragma solidity ^0.5.4;\n\n\n\n\n\n/**\n * @title DAOToken, base on zeppelin contract.\n * @dev ERC20 compatible token. It is a mintable, burnable token.\n */\n\ncontract DAOToken is ERC20, ERC20Burnable, Ownable {\n\n    string public name;\n    string public symbol;\n    // solhint-disable-next-line const-name-snakecase\n    uint8 public constant decimals = 18;\n    uint256 public cap;\n\n    /**\n    * @dev Constructor\n    * @param _name - token name\n    * @param _symbol - token symbol\n    * @param _cap - token cap - 0 value means no cap\n    */\n    constructor(string memory _name, string memory _symbol, uint256 _cap)\n    public {\n        name = _name;\n        symbol = _symbol;\n        cap = _cap;\n    }\n\n    /**\n     * @dev Function to mint tokens\n     * @param _to The address that will receive the minted tokens.\n     * @param _amount The amount of tokens to mint.\n     */\n    function mint(address _to, uint256 _amount) public onlyOwner returns (bool) {\n        if (cap > 0)\n            require(totalSupply().add(_amount) <= cap);\n        _mint(_to, _amount);\n        return true;\n    }\n}\n\n// File: openzeppelin-solidity/contracts/utils/Address.sol\n\npragma solidity ^0.5.0;\n\n/**\n * Utility library of inline functions on addresses\n */\nlibrary Address {\n    /**\n     * Returns whether the target address is a contract\n     * @dev This function will return false if invoked during the constructor of a contract,\n     * as the code is not actually created until after the constructor finishes.\n     * @param account address of the account to check\n     * @return whether the target address is a contract\n     */\n    function isContract(address account) internal view returns (bool) {\n        uint256 size;\n        // XXX Currently there is no better way to check if there is a contract in an address\n        // than to check the size of the code at that address.\n        // See https://ethereum.stackexchange.com/a/14016/36603\n        // for more details about how this works.\n        // TODO Check this again before the Serenity release, because all addresses will be\n        // contracts then.\n        // solhint-disable-next-line no-inline-assembly\n        assembly { size := extcodesize(account) }\n        return size > 0;\n    }\n}\n\n// File: @daostack/arc/contracts/libs/SafeERC20.sol\n\n/*\n\nSafeERC20 by daostack.\nThe code is based on a fix by SECBIT Team.\n\nUSE WITH CAUTION & NO WARRANTY\n\nREFERENCE & RELATED READING\n- https://github.com/ethereum/solidity/issues/4116\n- https://medium.com/@chris_77367/explaining-unexpected-reverts-starting-with-solidity-0-4-22-3ada6e82308c\n- https://medium.com/coinmonks/missing-return-value-bug-at-least-130-tokens-affected-d67bf08521ca\n- https://gist.github.com/BrendanChou/88a2eeb80947ff00bcf58ffdafeaeb61\n\n*/\npragma solidity ^0.5.4;\n\n\n\nlibrary SafeERC20 {\n    using Address for address;\n\n    bytes4 constant private TRANSFER_SELECTOR = bytes4(keccak256(bytes(\"transfer(address,uint256)\")));\n    bytes4 constant private TRANSFERFROM_SELECTOR = bytes4(keccak256(bytes(\"transferFrom(address,address,uint256)\")));\n    bytes4 constant private APPROVE_SELECTOR = bytes4(keccak256(bytes(\"approve(address,uint256)\")));\n\n    function safeTransfer(address _erc20Addr, address _to, uint256 _value) internal {\n\n        // Must be a contract addr first!\n        require(_erc20Addr.isContract());\n\n        (bool success, bytes memory returnValue) =\n        // solhint-disable-next-line avoid-low-level-calls\n        _erc20Addr.call(abi.encodeWithSelector(TRANSFER_SELECTOR, _to, _value));\n        // call return false when something wrong\n        require(success);\n        //check return value\n        require(returnValue.length == 0 || (returnValue.length == 32 && (returnValue[31] != 0)));\n    }\n\n    function safeTransferFrom(address _erc20Addr, address _from, address _to, uint256 _value) internal {\n\n        // Must be a contract addr first!\n        require(_erc20Addr.isContract());\n\n        (bool success, bytes memory returnValue) =\n        // solhint-disable-next-line avoid-low-level-calls\n        _erc20Addr.call(abi.encodeWithSelector(TRANSFERFROM_SELECTOR, _from, _to, _value));\n        // call return false when something wrong\n        require(success);\n        //check return value\n        require(returnValue.length == 0 || (returnValue.length == 32 && (returnValue[31] != 0)));\n    }\n\n    function safeApprove(address _erc20Addr, address _spender, uint256 _value) internal {\n\n        // Must be a contract addr first!\n        require(_erc20Addr.isContract());\n\n        // safeApprove should only be called when setting an initial allowance,\n        // or when resetting it to zero.\n        require((_value == 0) || (IERC20(_erc20Addr).allowance(address(this), _spender) == 0));\n\n        (bool success, bytes memory returnValue) =\n        // solhint-disable-next-line avoid-low-level-calls\n        _erc20Addr.call(abi.encodeWithSelector(APPROVE_SELECTOR, _spender, _value));\n        // call return false when something wrong\n        require(success);\n        //check return value\n        require(returnValue.length == 0 || (returnValue.length == 32 && (returnValue[31] != 0)));\n    }\n}\n\n// File: @daostack/arc/contracts/controller/Avatar.sol\n\npragma solidity ^0.5.4;\n\n\n\n\n\n\n\n/**\n * @title An Avatar holds tokens, reputation and ether for a controller\n */\ncontract Avatar is Ownable {\n    using SafeERC20 for address;\n\n    string public orgName;\n    DAOToken public nativeToken;\n    Reputation public nativeReputation;\n\n    event GenericCall(address indexed _contract, bytes _data, uint _value, bool _success);\n    event SendEther(uint256 _amountInWei, address indexed _to);\n    event ExternalTokenTransfer(address indexed _externalToken, address indexed _to, uint256 _value);\n    event ExternalTokenTransferFrom(address indexed _externalToken, address _from, address _to, uint256 _value);\n    event ExternalTokenApproval(address indexed _externalToken, address _spender, uint256 _value);\n    event ReceiveEther(address indexed _sender, uint256 _value);\n    event MetaData(string _metaData);\n\n    /**\n    * @dev the constructor takes organization name, native token and reputation system\n    and creates an avatar for a controller\n    */\n    constructor(string memory _orgName, DAOToken _nativeToken, Reputation _nativeReputation) public {\n        orgName = _orgName;\n        nativeToken = _nativeToken;\n        nativeReputation = _nativeReputation;\n    }\n\n    /**\n    * @dev enables an avatar to receive ethers\n    */\n    function() external payable {\n        emit ReceiveEther(msg.sender, msg.value);\n    }\n\n    /**\n    * @dev perform a generic call to an arbitrary contract\n    * @param _contract  the contract's address to call\n    * @param _data ABI-encoded contract call to call `_contract` address.\n    * @param _value value (ETH) to transfer with the transaction\n    * @return bool    success or fail\n    *         bytes - the return bytes of the called contract's function.\n    */\n    function genericCall(address _contract, bytes memory _data, uint256 _value)\n    public\n    onlyOwner\n    returns(bool success, bytes memory returnValue) {\n      // solhint-disable-next-line avoid-call-value\n        (success, returnValue) = _contract.call.value(_value)(_data);\n        emit GenericCall(_contract, _data, _value, success);\n    }\n\n    /**\n    * @dev send ethers from the avatar's wallet\n    * @param _amountInWei amount to send in Wei units\n    * @param _to send the ethers to this address\n    * @return bool which represents success\n    */\n    function sendEther(uint256 _amountInWei, address payable _to) public onlyOwner returns(bool) {\n        _to.transfer(_amountInWei);\n        emit SendEther(_amountInWei, _to);\n        return true;\n    }\n\n    /**\n    * @dev external token transfer\n    * @param _externalToken the token contract\n    * @param _to the destination address\n    * @param _value the amount of tokens to transfer\n    * @return bool which represents success\n    */\n    function externalTokenTransfer(IERC20 _externalToken, address _to, uint256 _value)\n    public onlyOwner returns(bool)\n    {\n        address(_externalToken).safeTransfer(_to, _value);\n        emit ExternalTokenTransfer(address(_externalToken), _to, _value);\n        return true;\n    }\n\n    /**\n    * @dev external token transfer from a specific account\n    * @param _externalToken the token contract\n    * @param _from the account to spend token from\n    * @param _to the destination address\n    * @param _value the amount of tokens to transfer\n    * @return bool which represents success\n    */\n    function externalTokenTransferFrom(\n        IERC20 _externalToken,\n        address _from,\n        address _to,\n        uint256 _value\n    )\n    public onlyOwner returns(bool)\n    {\n        address(_externalToken).safeTransferFrom(_from, _to, _value);\n        emit ExternalTokenTransferFrom(address(_externalToken), _from, _to, _value);\n        return true;\n    }\n\n    /**\n    * @dev externalTokenApproval approve the spender address to spend a specified amount of tokens\n    *      on behalf of msg.sender.\n    * @param _externalToken the address of the Token Contract\n    * @param _spender address\n    * @param _value the amount of ether (in Wei) which the approval is referring to.\n    * @return bool which represents a success\n    */\n    function externalTokenApproval(IERC20 _externalToken, address _spender, uint256 _value)\n    public onlyOwner returns(bool)\n    {\n        address(_externalToken).safeApprove(_spender, _value);\n        emit ExternalTokenApproval(address(_externalToken), _spender, _value);\n        return true;\n    }\n\n    /**\n    * @dev metaData emits an event with a string, should contain the hash of some meta data.\n    * @param _metaData a string representing a hash of the meta data\n    * @return bool which represents a success\n    */\n    function metaData(string memory _metaData) public onlyOwner returns(bool) {\n        emit MetaData(_metaData);\n        return true;\n    }\n\n\n}\n\n// File: @daostack/arc/contracts/globalConstraints/GlobalConstraintInterface.sol\n\npragma solidity ^0.5.4;\n\n\ncontract GlobalConstraintInterface {\n\n    enum CallPhase { Pre, Post, PreAndPost }\n\n    function pre( address _scheme, bytes32 _params, bytes32 _method ) public returns(bool);\n    function post( address _scheme, bytes32 _params, bytes32 _method ) public returns(bool);\n    /**\n     * @dev when return if this globalConstraints is pre, post or both.\n     * @return CallPhase enum indication  Pre, Post or PreAndPost.\n     */\n    function when() public returns(CallPhase);\n}\n\n// File: @daostack/arc/contracts/controller/ControllerInterface.sol\n\npragma solidity ^0.5.4;\n\n\n\n/**\n * @title Controller contract\n * @dev A controller controls the organizations tokens ,reputation and avatar.\n * It is subject to a set of schemes and constraints that determine its behavior.\n * Each scheme has it own parameters and operation permissions.\n */\ninterface ControllerInterface {\n\n    /**\n     * @dev Mint `_amount` of reputation that are assigned to `_to` .\n     * @param  _amount amount of reputation to mint\n     * @param _to beneficiary address\n     * @return bool which represents a success\n    */\n    function mintReputation(uint256 _amount, address _to, address _avatar)\n    external\n    returns(bool);\n\n    /**\n     * @dev Burns `_amount` of reputation from `_from`\n     * @param _amount amount of reputation to burn\n     * @param _from The address that will lose the reputation\n     * @return bool which represents a success\n     */\n    function burnReputation(uint256 _amount, address _from, address _avatar)\n    external\n    returns(bool);\n\n    /**\n     * @dev mint tokens .\n     * @param  _amount amount of token to mint\n     * @param _beneficiary beneficiary address\n     * @param _avatar address\n     * @return bool which represents a success\n     */\n    function mintTokens(uint256 _amount, address _beneficiary, address _avatar)\n    external\n    returns(bool);\n\n  /**\n   * @dev register or update a scheme\n   * @param _scheme the address of the scheme\n   * @param _paramsHash a hashed configuration of the usage of the scheme\n   * @param _permissions the permissions the new scheme will have\n   * @param _avatar address\n   * @return bool which represents a success\n   */\n    function registerScheme(address _scheme, bytes32 _paramsHash, bytes4 _permissions, address _avatar)\n    external\n    returns(bool);\n\n    /**\n     * @dev unregister a scheme\n     * @param _avatar address\n     * @param _scheme the address of the scheme\n     * @return bool which represents a success\n     */\n    function unregisterScheme(address _scheme, address _avatar)\n    external\n    returns(bool);\n\n    /**\n     * @dev unregister the caller's scheme\n     * @param _avatar address\n     * @return bool which represents a success\n     */\n    function unregisterSelf(address _avatar) external returns(bool);\n\n    /**\n     * @dev add or update Global Constraint\n     * @param _globalConstraint the address of the global constraint to be added.\n     * @param _params the constraint parameters hash.\n     * @param _avatar the avatar of the organization\n     * @return bool which represents a success\n     */\n    function addGlobalConstraint(address _globalConstraint, bytes32 _params, address _avatar)\n    external returns(bool);\n\n    /**\n     * @dev remove Global Constraint\n     * @param _globalConstraint the address of the global constraint to be remove.\n     * @param _avatar the organization avatar.\n     * @return bool which represents a success\n     */\n    function removeGlobalConstraint (address _globalConstraint, address _avatar)\n    external  returns(bool);\n\n  /**\n    * @dev upgrade the Controller\n    *      The function will trigger an event 'UpgradeController'.\n    * @param  _newController the address of the new controller.\n    * @param _avatar address\n    * @return bool which represents a success\n    */\n    function upgradeController(address _newController, Avatar _avatar)\n    external returns(bool);\n\n    /**\n    * @dev perform a generic call to an arbitrary contract\n    * @param _contract  the contract's address to call\n    * @param _data ABI-encoded contract call to call `_contract` address.\n    * @param _avatar the controller's avatar address\n    * @param _value value (ETH) to transfer with the transaction\n    * @return bool -success\n    *         bytes  - the return value of the called _contract's function.\n    */\n    function genericCall(address _contract, bytes calldata _data, Avatar _avatar, uint256 _value)\n    external\n    returns(bool, bytes memory);\n\n  /**\n   * @dev send some ether\n   * @param _amountInWei the amount of ether (in Wei) to send\n   * @param _to address of the beneficiary\n   * @param _avatar address\n   * @return bool which represents a success\n   */\n    function sendEther(uint256 _amountInWei, address payable _to, Avatar _avatar)\n    external returns(bool);\n\n    /**\n    * @dev send some amount of arbitrary ERC20 Tokens\n    * @param _externalToken the address of the Token Contract\n    * @param _to address of the beneficiary\n    * @param _value the amount of ether (in Wei) to send\n    * @param _avatar address\n    * @return bool which represents a success\n    */\n    function externalTokenTransfer(IERC20 _externalToken, address _to, uint256 _value, Avatar _avatar)\n    external\n    returns(bool);\n\n    /**\n    * @dev transfer token \"from\" address \"to\" address\n    *      One must to approve the amount of tokens which can be spend from the\n    *      \"from\" account.This can be done using externalTokenApprove.\n    * @param _externalToken the address of the Token Contract\n    * @param _from address of the account to send from\n    * @param _to address of the beneficiary\n    * @param _value the amount of ether (in Wei) to send\n    * @param _avatar address\n    * @return bool which represents a success\n    */\n    function externalTokenTransferFrom(\n    IERC20 _externalToken,\n    address _from,\n    address _to,\n    uint256 _value,\n    Avatar _avatar)\n    external\n    returns(bool);\n\n    /**\n    * @dev externalTokenApproval approve the spender address to spend a specified amount of tokens\n    *      on behalf of msg.sender.\n    * @param _externalToken the address of the Token Contract\n    * @param _spender address\n    * @param _value the amount of ether (in Wei) which the approval is referring to.\n    * @return bool which represents a success\n    */\n    function externalTokenApproval(IERC20 _externalToken, address _spender, uint256 _value, Avatar _avatar)\n    external\n    returns(bool);\n\n    /**\n    * @dev metaData emits an event with a string, should contain the hash of some meta data.\n    * @param _metaData a string representing a hash of the meta data\n    * @param _avatar Avatar\n    * @return bool which represents a success\n    */\n    function metaData(string calldata _metaData, Avatar _avatar) external returns(bool);\n\n    /**\n     * @dev getNativeReputation\n     * @param _avatar the organization avatar.\n     * @return organization native reputation\n     */\n    function getNativeReputation(address _avatar)\n    external\n    view\n    returns(address);\n\n    function isSchemeRegistered( address _scheme, address _avatar) external view returns(bool);\n\n    function getSchemeParameters(address _scheme, address _avatar) external view returns(bytes32);\n\n    function getGlobalConstraintParameters(address _globalConstraint, address _avatar) external view returns(bytes32);\n\n    function getSchemePermissions(address _scheme, address _avatar) external view returns(bytes4);\n\n    /**\n     * @dev globalConstraintsCount return the global constraint pre and post count\n     * @return uint256 globalConstraintsPre count.\n     * @return uint256 globalConstraintsPost count.\n     */\n    function globalConstraintsCount(address _avatar) external view returns(uint, uint);\n\n    function isGlobalConstraintRegistered(address _globalConstraint, address _avatar) external view returns(bool);\n}\n\n// File: @daostack/arc/contracts/schemes/Agreement.sol\n\npragma solidity ^0.5.4;\n\n/**\n * @title A scheme for conduct ERC20 Tokens auction for reputation\n */\n\n\ncontract Agreement {\n\n    bytes32 private agreementHash;\n\n    modifier onlyAgree(bytes32 _agreementHash) {\n        require(_agreementHash == agreementHash, \"Sender must send the right agreementHash\");\n        _;\n    }\n\n    /**\n     * @dev getAgreementHash\n     * @return bytes32 agreementHash\n     */\n    function getAgreementHash() external  view returns(bytes32)\n    {\n        return agreementHash;\n    }\n\n    /**\n     * @dev setAgreementHash\n     * @param _agreementHash is a hash of agreement required to be added to the TX by participants\n     */\n    function setAgreementHash(bytes32 _agreementHash) internal\n    {\n        require(agreementHash == bytes32(0), \"Can not set agreement twice\");\n        agreementHash = _agreementHash;\n    }\n\n\n}\n\n// File: @daostack/arc/contracts/schemes/Locking4Reputation.sol\n\npragma solidity ^0.5.4;\n\n\n\n/**\n * @title A locker contract\n */\n\ncontract Locking4Reputation is Agreement {\n    using SafeMath for uint256;\n\n    event Redeem(address indexed _beneficiary, uint256 _amount);\n    event Release(bytes32 indexed _lockingId, address indexed _beneficiary, uint256 _amount);\n    event Lock(address indexed _locker, bytes32 indexed _lockingId, uint256 _amount, uint256 _period);\n\n    struct Locker {\n        uint256 amount;\n        uint256 releaseTime;\n    }\n\n    Avatar public avatar;\n\n    // A mapping from lockers addresses their lock balances.\n    mapping(address => mapping(bytes32=>Locker)) public lockers;\n    // A mapping from lockers addresses to their scores.\n    mapping(address => uint) public scores;\n\n    uint256 public totalLocked;\n    uint256 public totalLockedLeft;\n    uint256 public totalScore;\n    uint256 public lockingsCounter; // Total number of lockings\n    uint256 public reputationReward;\n    uint256 public reputationRewardLeft;\n    uint256 public lockingEndTime;\n    uint256 public maxLockingPeriod;\n    uint256 public lockingStartTime;\n    uint256 public redeemEnableTime;\n\n    /**\n     * @dev redeem reputation function\n     * @param _beneficiary the beneficiary for the release\n     * @return uint256 reputation rewarded\n     */\n    function redeem(address _beneficiary) public returns(uint256 reputation) {\n        // solhint-disable-next-line not-rely-on-time\n        require(block.timestamp > redeemEnableTime, \"now > redeemEnableTime\");\n        require(scores[_beneficiary] > 0, \"score should be > 0\");\n        uint256 score = scores[_beneficiary];\n        scores[_beneficiary] = 0;\n        uint256 repRelation = score.mul(reputationReward);\n        reputation = repRelation.div(totalScore);\n\n        //check that the reputation is sum zero\n        reputationRewardLeft = reputationRewardLeft.sub(reputation);\n        require(\n        ControllerInterface(\n        avatar.owner())\n        .mintReputation(reputation, _beneficiary, address(avatar)), \"mint reputation should succeed\");\n\n        emit Redeem(_beneficiary, reputation);\n    }\n\n    /**\n     * @dev release function\n     * @param _beneficiary the beneficiary for the release\n     * @param _lockingId the locking id to release\n     * @return bool\n     */\n    function _release(address _beneficiary, bytes32 _lockingId) internal returns(uint256 amount) {\n        Locker storage locker = lockers[_beneficiary][_lockingId];\n        require(locker.amount > 0, \"amount should be > 0\");\n        amount = locker.amount;\n        locker.amount = 0;\n        // solhint-disable-next-line not-rely-on-time\n        require(block.timestamp > locker.releaseTime, \"check the lock period pass\");\n        totalLockedLeft = totalLockedLeft.sub(amount);\n\n        emit Release(_lockingId, _beneficiary, amount);\n    }\n\n    /**\n     * @dev lock function\n     * @param _amount the amount to lock\n     * @param _period the locking period\n     * @param _locker the locker\n     * @param _numerator price numerator\n     * @param _denominator price denominator\n     * @return lockingId\n     */\n    function _lock(\n        uint256 _amount,\n        uint256 _period,\n        address _locker,\n        uint256 _numerator,\n        uint256 _denominator,\n        bytes32 _agreementHash)\n        internal\n        onlyAgree(_agreementHash)\n        returns(bytes32 lockingId)\n        {\n        require(_amount > 0, \"locking amount should be > 0\");\n        require(_period <= maxLockingPeriod, \"locking period should be <= maxLockingPeriod\");\n        require(_period > 0, \"locking period should be > 0\");\n        // solhint-disable-next-line not-rely-on-time\n        require(now <= lockingEndTime, \"lock should be within the allowed locking period\");\n        // solhint-disable-next-line not-rely-on-time\n        require(now >= lockingStartTime, \"lock should start after lockingStartTime\");\n\n        lockingId = keccak256(abi.encodePacked(address(this), lockingsCounter));\n        lockingsCounter = lockingsCounter.add(1);\n\n        Locker storage locker = lockers[_locker][lockingId];\n        locker.amount = _amount;\n        // solhint-disable-next-line not-rely-on-time\n        locker.releaseTime = now + _period;\n        totalLocked = totalLocked.add(_amount);\n        totalLockedLeft = totalLockedLeft.add(_amount);\n        uint256 score = _period.mul(_amount).mul(_numerator).div(_denominator);\n        require(score > 0, \"score must me > 0\");\n        scores[_locker] = scores[_locker].add(score);\n        //verify that redeem will not overflow for this locker\n        require((scores[_locker] * reputationReward)/scores[_locker] == reputationReward,\n        \"score is too high\");\n        totalScore = totalScore.add(score);\n\n        emit Lock(_locker, lockingId, _amount, _period);\n    }\n\n    /**\n     * @dev _initialize\n     * @param _avatar the avatar to mint reputation from\n     * @param _reputationReward the total reputation this contract will reward\n     *        for eth/token locking\n     * @param _lockingStartTime the locking start time.\n     * @param _lockingEndTime the locking end time.\n     *        locking is disable after this time.\n     * @param _redeemEnableTime redeem enable time .\n     *        redeem reputation can be done after this time.\n     * @param _maxLockingPeriod maximum locking period allowed.\n     */\n    function _initialize(\n        Avatar _avatar,\n        uint256 _reputationReward,\n        uint256 _lockingStartTime,\n        uint256 _lockingEndTime,\n        uint256 _redeemEnableTime,\n        uint256 _maxLockingPeriod,\n        bytes32 _agreementHash )\n    internal\n    {\n        require(avatar == Avatar(0), \"can be called only one time\");\n        require(_avatar != Avatar(0), \"avatar cannot be zero\");\n        require(_lockingEndTime > _lockingStartTime, \"locking end time should be greater than locking start time\");\n        require(_redeemEnableTime >= _lockingEndTime, \"redeemEnableTime >= lockingEndTime\");\n\n        reputationReward = _reputationReward;\n        reputationRewardLeft = _reputationReward;\n        lockingEndTime = _lockingEndTime;\n        maxLockingPeriod = _maxLockingPeriod;\n        avatar = _avatar;\n        lockingStartTime = _lockingStartTime;\n        redeemEnableTime = _redeemEnableTime;\n        super.setAgreementHash(_agreementHash);\n    }\n\n}\n\n// File: @daostack/arc/contracts/schemes/ExternalLocking4Reputation.sol\n\npragma solidity ^0.5.4;\n\n\n/**\n * @title A scheme for external locking Tokens for reputation\n */\n\ncontract ExternalLocking4Reputation is Locking4Reputation {\n\n    event Register(address indexed _beneficiary);\n\n    address public externalLockingContract;\n    string public getBalanceFuncSignature;\n\n    // locker -> bool\n    mapping(address => bool) public externalLockers;\n    //      beneficiary -> bool\n    mapping(address     => bool) public registrar;\n\n    /**\n     * @dev initialize\n     * @param _avatar the avatar to mint reputation from\n     * @param _reputationReward the total reputation this contract will reward\n     *        for the token locking\n     * @param _claimingStartTime claiming starting period time.\n     * @param _claimingEndTime the claiming end time.\n     *        claiming is disable after this time.\n     * @param _redeemEnableTime redeem enable time .\n     *        redeem reputation can be done after this time.\n     * @param _externalLockingContract the contract which lock the token.\n     * @param _getBalanceFuncSignature get balance function signature\n     *        e.g \"lockedTokenBalances(address)\"\n     */\n    function initialize(\n        Avatar _avatar,\n        uint256 _reputationReward,\n        uint256 _claimingStartTime,\n        uint256 _claimingEndTime,\n        uint256 _redeemEnableTime,\n        address _externalLockingContract,\n        string calldata _getBalanceFuncSignature,\n        bytes32 _agreementHash)\n    external\n    {\n        require(_claimingEndTime > _claimingStartTime, \"_claimingEndTime should be greater than _claimingStartTime\");\n        externalLockingContract = _externalLockingContract;\n        getBalanceFuncSignature = _getBalanceFuncSignature;\n        super._initialize(\n        _avatar,\n        _reputationReward,\n        _claimingStartTime,\n        _claimingEndTime,\n        _redeemEnableTime,\n        1,\n        _agreementHash);\n    }\n\n    /**\n     * @dev claim function\n     * @param _beneficiary the beneficiary address to claim for\n     *        if _beneficiary == 0 the claim will be for the msg.sender.\n     * @return claimId\n     */\n    function claim(address _beneficiary, bytes32 _agreementHash) public returns(bytes32) {\n        require(avatar != Avatar(0), \"should initialize first\");\n        address beneficiary;\n        if (_beneficiary == address(0)) {\n            beneficiary = msg.sender;\n        } else {\n            require(registrar[_beneficiary], \"beneficiary should be register\");\n            beneficiary = _beneficiary;\n        }\n        require(externalLockers[beneficiary] == false, \"claiming twice for the same beneficiary is not allowed\");\n        externalLockers[beneficiary] = true;\n        (bool result, bytes memory returnValue) =\n        // solhint-disable-next-line avoid-call-value,avoid-low-level-calls\n        externalLockingContract.call(abi.encodeWithSignature(getBalanceFuncSignature, beneficiary));\n        require(result, \"call to external contract should succeed\");\n        uint256 lockedAmount;\n        // solhint-disable-next-line no-inline-assembly\n        assembly {\n            lockedAmount := mload(add(returnValue, 0x20))\n        }\n        return super._lock(lockedAmount, 1, beneficiary, 1, 1, _agreementHash);\n    }\n\n   /**\n    * @dev register function\n    *      register for external locking claim\n    */\n    function register(bytes32 _agreementHash) public onlyAgree(_agreementHash) {\n        registrar[msg.sender] = true;\n        emit Register(msg.sender);\n    }\n}\n\n// File: contracts/schemes/bootstrap/DxLockMgnForRep.sol\n\npragma solidity ^0.5.4;\n\n\n/**\n * @title Scheme that allows to get GEN by locking MGN\n */\ncontract DxLockMgnForRep is ExternalLocking4Reputation {\n    constructor() public {}\n}\n",
  "sourcePath": "/home/blackjak/Projects/DXdao/dxdao-contracts/contracts/schemes/DxLockMgnForRep.sol",
  "compiler": {
    "name": "solc",
    "version": "0.5.17+commit.d19bba13.Emscripten.clang"
  },
  "schemaVersion": "3.1.0",
  "updatedAt": "2020-05-20T19:09:10.972Z",
  "devdoc": {
    "methods": {
      "claim(address,bytes32)": {
        "details": "claim function",
        "params": {
          "_beneficiary": "the beneficiary address to claim for       if _beneficiary == 0 the claim will be for the msg.sender."
        },
        "return": "claimId"
      },
      "getAgreementHash()": {
        "details": "getAgreementHash",
        "return": "bytes32 agreementHash"
      },
      "initialize(address,uint256,uint256,uint256,uint256,address,string,bytes32)": {
        "details": "initialize",
        "params": {
          "_avatar": "the avatar to mint reputation from",
          "_claimingEndTime": "the claiming end time.       claiming is disable after this time.",
          "_claimingStartTime": "claiming starting period time.",
          "_externalLockingContract": "the contract which lock the token.",
          "_getBalanceFuncSignature": "get balance function signature       e.g \"lockedTokenBalances(address)\"",
          "_redeemEnableTime": "redeem enable time .       redeem reputation can be done after this time.",
          "_reputationReward": "the total reputation this contract will reward       for the token locking"
        }
      },
      "redeem(address)": {
        "details": "redeem reputation function",
        "params": {
          "_beneficiary": "the beneficiary for the release"
        },
        "return": "uint256 reputation rewarded"
      },
      "register(bytes32)": {
        "details": "register function     register for external locking claim"
      }
    },
    "title": "A scheme for external locking Tokens for reputation"
  },
  "userdoc": {
    "methods": {}
  }
}